{
  "contractName": "Affiliate",
  "abi": [
    {
      "constant": true,
      "inputs": [
        {
          "name": "",
          "type": "address"
        }
      ],
      "name": "userToAffiliate",
      "outputs": [
        {
          "name": "",
          "type": "address"
        }
      ],
      "payable": false,
      "stateMutability": "view",
      "type": "function"
    },
    {
      "constant": true,
      "inputs": [],
      "name": "owner",
      "outputs": [
        {
          "name": "",
          "type": "address"
        }
      ],
      "payable": false,
      "stateMutability": "view",
      "type": "function"
    },
    {
      "constant": false,
      "inputs": [
        {
          "name": "newOwner",
          "type": "address"
        }
      ],
      "name": "transferOwnership",
      "outputs": [],
      "payable": false,
      "stateMutability": "nonpayable",
      "type": "function"
    },
    {
      "constant": true,
      "inputs": [
        {
          "name": "",
          "type": "address"
        }
      ],
      "name": "canSetAffiliate",
      "outputs": [
        {
          "name": "",
          "type": "bool"
        }
      ],
      "payable": false,
      "stateMutability": "view",
      "type": "function"
    },
    {
      "anonymous": false,
      "inputs": [
        {
          "indexed": true,
          "name": "previousOwner",
          "type": "address"
        },
        {
          "indexed": true,
          "name": "newOwner",
          "type": "address"
        }
      ],
      "name": "OwnershipTransferred",
      "type": "event"
    },
    {
      "constant": false,
      "inputs": [
        {
          "name": "_setter",
          "type": "address"
        }
      ],
      "name": "setAffiliateSetter",
      "outputs": [],
      "payable": false,
      "stateMutability": "nonpayable",
      "type": "function"
    },
    {
      "constant": false,
      "inputs": [
        {
          "name": "_user",
          "type": "address"
        },
        {
          "name": "_affiliate",
          "type": "address"
        }
      ],
      "name": "setAffiliate",
      "outputs": [],
      "payable": false,
      "stateMutability": "nonpayable",
      "type": "function"
    }
  ],
  "bytecode": "0x608060405260008054600160a060020a0319163317905561032a806100256000396000f3006080604052600436106100775763ffffffff7c01000000000000000000000000000000000000000000000000000000006000350416637352e4b8811461007c57806384d43f66146100a5578063873abd75146100c65780638da5cb5b14610103578063f2fde38b14610118578063fd8e09bc14610139575b600080fd5b34801561008857600080fd5b506100a3600160a060020a036004358116906024351661016e565b005b3480156100b157600080fd5b506100a3600160a060020a03600435166101ed565b3480156100d257600080fd5b506100e7600160a060020a036004351661022b565b60408051600160a060020a039092168252519081900360200190f35b34801561010f57600080fd5b506100e7610246565b34801561012457600080fd5b506100a3600160a060020a0360043516610255565b34801561014557600080fd5b5061015a600160a060020a03600435166102e9565b604080519115158252519081900360200190f35b3360009081526001602052604090205460ff16151561018c57600080fd5b600160a060020a038281166000908152600260205260409020541615156101e957600160a060020a038281166000908152600260205260409020805473ffffffffffffffffffffffffffffffffffffffff19169183169190911790555b5050565b600054600160a060020a0316331461020457600080fd5b600160a060020a03166000908152600160208190526040909120805460ff19169091179055565b600260205260009081526040902054600160a060020a031681565b600054600160a060020a031681565b600054600160a060020a0316331461026c57600080fd5b600160a060020a038116151561028157600080fd5b60008054604051600160a060020a03808516939216917f8be0079c531659141344cd1fd0a4f28419497f9722a3daafe3b4186f6b6457e091a36000805473ffffffffffffffffffffffffffffffffffffffff1916600160a060020a0392909216919091179055565b60016020526000908152604090205460ff16815600a165627a7a723058204c8001cc379f66ae85c0c620ab40680fb0fc47ff0cec72cd6d3ace00cb8836250029",
  "source": "pragma solidity ^0.4.4;\n\nimport \"openzeppelin-solidity/contracts/ownership/Ownable.sol\";\n\ncontract Affiliate is Ownable {\n\n    mapping(address => bool) public canSetAffiliate;\n\n    mapping(address => address) public userToAffiliate;\n\n\n    function setAffiliateSetter(address _setter) onlyOwner public {\n        canSetAffiliate[_setter] = true;\n    }\n\n    function setAffiliate(address _user, address _affiliate) public {\n        require(canSetAffiliate[msg.sender]);\n        if(userToAffiliate[_user] == address(0)) {\n            userToAffiliate[_user] = _affiliate;\n        }\n    }\n}\n",
  "sourcePath": "/Users/mickdegraaf/Documents/development/cryptopepe-smartcontracts/contracts/Affiliate.sol",
  "compiler": {
    "name": "solc",
    "version": "0.4.24+commit.e67f0147.Emscripten.clang"
  },
  "schemaVersion": "2.0.0",
  "updatedAt": "2018-05-28T16:01:54.010Z"
}