{
  "contractName": "Beneficiary",
  "abi": [
    {
      "constant": true,
      "inputs": [],
      "name": "beneficiary",
      "outputs": [
        {
          "name": "",
          "type": "address"
        }
      ],
      "payable": false,
      "stateMutability": "view",
      "type": "function"
    },
    {
      "constant": true,
      "inputs": [],
      "name": "owner",
      "outputs": [
        {
          "name": "",
          "type": "address"
        }
      ],
      "payable": false,
      "stateMutability": "view",
      "type": "function"
    },
    {
      "constant": false,
      "inputs": [
        {
          "name": "newOwner",
          "type": "address"
        }
      ],
      "name": "transferOwnership",
      "outputs": [],
      "payable": false,
      "stateMutability": "nonpayable",
      "type": "function"
    },
    {
      "inputs": [],
      "payable": false,
      "stateMutability": "nonpayable",
      "type": "constructor"
    },
    {
      "anonymous": false,
      "inputs": [
        {
          "indexed": true,
          "name": "previousOwner",
          "type": "address"
        },
        {
          "indexed": true,
          "name": "newOwner",
          "type": "address"
        }
      ],
      "name": "OwnershipTransferred",
      "type": "event"
    },
    {
      "constant": false,
      "inputs": [
        {
          "name": "_beneficiary",
          "type": "address"
        }
      ],
      "name": "setBeneficiary",
      "outputs": [],
      "payable": false,
      "stateMutability": "nonpayable",
      "type": "function"
    }
  ],
  "bytecode": "0x608060405234801561001057600080fd5b506000805433600160a060020a031991821681178355600180549092161790556102a390819061004090396000f3006080604052600436106100615763ffffffff7c01000000000000000000000000000000000000000000000000000000006000350416631c31f710811461006657806338af3eed146100965780638da5cb5b146100d4578063f2fde38b146100e9575b600080fd5b34801561007257600080fd5b5061009473ffffffffffffffffffffffffffffffffffffffff60043516610117565b005b3480156100a257600080fd5b506100ab610177565b6040805173ffffffffffffffffffffffffffffffffffffffff9092168252519081900360200190f35b3480156100e057600080fd5b506100ab610193565b3480156100f557600080fd5b5061009473ffffffffffffffffffffffffffffffffffffffff600435166101af565b60005473ffffffffffffffffffffffffffffffffffffffff16331461013b57600080fd5b6001805473ffffffffffffffffffffffffffffffffffffffff191673ffffffffffffffffffffffffffffffffffffffff92909216919091179055565b60015473ffffffffffffffffffffffffffffffffffffffff1681565b60005473ffffffffffffffffffffffffffffffffffffffff1681565b60005473ffffffffffffffffffffffffffffffffffffffff1633146101d357600080fd5b73ffffffffffffffffffffffffffffffffffffffff811615156101f557600080fd5b6000805460405173ffffffffffffffffffffffffffffffffffffffff808516939216917f8be0079c531659141344cd1fd0a4f28419497f9722a3daafe3b4186f6b6457e091a36000805473ffffffffffffffffffffffffffffffffffffffff191673ffffffffffffffffffffffffffffffffffffffff929092169190911790555600a165627a7a72305820641a06b1c3fe302376b4f0fbf32b5dd7ac5717a9e0668d4c8a85449c7fe717330029",
  "source": "pragma solidity ^0.4.19;\n\nimport \"openzeppelin-solidity/contracts/ownership/Ownable.sol\";\n\ncontract Beneficiary is Ownable {\n    address public beneficiary;\n\n    constructor() public {\n        beneficiary = msg.sender;\n    }\n\n    function setBeneficiary(address _beneficiary) onlyOwner public {\n        beneficiary = _beneficiary;\n    }\n}\n",
  "sourcePath": "/Users/mickdegraaf/Documents/development/cryptopepe-smartcontracts/contracts/Beneficiary.sol",
  "compiler": {
    "name": "solc",
    "version": "0.4.24+commit.e67f0147.Emscripten.clang"
  },
  "schemaVersion": "2.0.0",
  "updatedAt": "2018-05-28T16:01:54.021Z"
}