{
  "contractName": "CozyTimeAuction",
  "abi": [
    {
      "constant": true,
      "inputs": [],
      "name": "affiliateContract",
      "outputs": [
        {
          "name": "",
          "type": "address"
        }
      ],
      "payable": false,
      "stateMutability": "view",
      "type": "function"
    },
    {
      "constant": true,
      "inputs": [],
      "name": "pepeContract",
      "outputs": [
        {
          "name": "",
          "type": "address"
        }
      ],
      "payable": false,
      "stateMutability": "view",
      "type": "function"
    },
    {
      "constant": false,
      "inputs": [
        {
          "name": "_beneficiary",
          "type": "address"
        }
      ],
      "name": "setBeneficiary",
      "outputs": [],
      "payable": false,
      "stateMutability": "nonpayable",
      "type": "function"
    },
    {
      "constant": true,
      "inputs": [
        {
          "name": "_pepeId",
          "type": "uint256"
        }
      ],
      "name": "calculateBid",
      "outputs": [
        {
          "name": "",
          "type": "uint256"
        }
      ],
      "payable": false,
      "stateMutability": "view",
      "type": "function"
    },
    {
      "constant": true,
      "inputs": [],
      "name": "beneficiary",
      "outputs": [
        {
          "name": "",
          "type": "address"
        }
      ],
      "payable": false,
      "stateMutability": "view",
      "type": "function"
    },
    {
      "constant": true,
      "inputs": [
        {
          "name": "",
          "type": "uint256"
        }
      ],
      "name": "auctions",
      "outputs": [
        {
          "name": "seller",
          "type": "address"
        },
        {
          "name": "pepeId",
          "type": "uint256"
        },
        {
          "name": "auctionBegin",
          "type": "uint64"
        },
        {
          "name": "auctionEnd",
          "type": "uint64"
        },
        {
          "name": "beginPrice",
          "type": "uint256"
        },
        {
          "name": "endPrice",
          "type": "uint256"
        }
      ],
      "payable": false,
      "stateMutability": "view",
      "type": "function"
    },
    {
      "constant": false,
      "inputs": [
        {
          "name": "_fee",
          "type": "uint256"
        }
      ],
      "name": "changeFee",
      "outputs": [],
      "payable": false,
      "stateMutability": "nonpayable",
      "type": "function"
    },
    {
      "constant": true,
      "inputs": [],
      "name": "owner",
      "outputs": [
        {
          "name": "",
          "type": "address"
        }
      ],
      "payable": false,
      "stateMutability": "view",
      "type": "function"
    },
    {
      "constant": false,
      "inputs": [
        {
          "name": "_pepeId",
          "type": "uint256"
        }
      ],
      "name": "savePepe",
      "outputs": [],
      "payable": false,
      "stateMutability": "nonpayable",
      "type": "function"
    },
    {
      "constant": true,
      "inputs": [],
      "name": "fee",
      "outputs": [
        {
          "name": "",
          "type": "uint256"
        }
      ],
      "payable": false,
      "stateMutability": "view",
      "type": "function"
    },
    {
      "constant": false,
      "inputs": [
        {
          "name": "newOwner",
          "type": "address"
        }
      ],
      "name": "transferOwnership",
      "outputs": [],
      "payable": false,
      "stateMutability": "nonpayable",
      "type": "function"
    },
    {
      "inputs": [
        {
          "name": "_pepeContract",
          "type": "address"
        },
        {
          "name": "_affiliateContract",
          "type": "address"
        }
      ],
      "payable": false,
      "stateMutability": "nonpayable",
      "type": "constructor"
    },
    {
      "anonymous": false,
      "inputs": [
        {
          "indexed": true,
          "name": "pepe",
          "type": "uint256"
        },
        {
          "indexed": true,
          "name": "winner",
          "type": "address"
        },
        {
          "indexed": true,
          "name": "seller",
          "type": "address"
        }
      ],
      "name": "AuctionWon",
      "type": "event"
    },
    {
      "anonymous": false,
      "inputs": [
        {
          "indexed": true,
          "name": "pepe",
          "type": "uint256"
        },
        {
          "indexed": true,
          "name": "seller",
          "type": "address"
        }
      ],
      "name": "AuctionStarted",
      "type": "event"
    },
    {
      "anonymous": false,
      "inputs": [
        {
          "indexed": true,
          "name": "pepe",
          "type": "uint256"
        },
        {
          "indexed": true,
          "name": "seller",
          "type": "address"
        }
      ],
      "name": "AuctionFinalized",
      "type": "event"
    },
    {
      "anonymous": false,
      "inputs": [
        {
          "indexed": true,
          "name": "previousOwner",
          "type": "address"
        },
        {
          "indexed": true,
          "name": "newOwner",
          "type": "address"
        }
      ],
      "name": "OwnershipTransferred",
      "type": "event"
    },
    {
      "constant": false,
      "inputs": [
        {
          "name": "_pepeId",
          "type": "uint256"
        },
        {
          "name": "_beginPrice",
          "type": "uint256"
        },
        {
          "name": "_endPrice",
          "type": "uint256"
        },
        {
          "name": "_duration",
          "type": "uint64"
        }
      ],
      "name": "startAuction",
      "outputs": [],
      "payable": false,
      "stateMutability": "nonpayable",
      "type": "function"
    },
    {
      "constant": false,
      "inputs": [
        {
          "name": "_pepeId",
          "type": "uint256"
        },
        {
          "name": "_beginPrice",
          "type": "uint256"
        },
        {
          "name": "_endPrice",
          "type": "uint256"
        },
        {
          "name": "_duration",
          "type": "uint64"
        },
        {
          "name": "_seller",
          "type": "address"
        }
      ],
      "name": "startAuctionDirect",
      "outputs": [],
      "payable": false,
      "stateMutability": "nonpayable",
      "type": "function"
    },
    {
      "constant": false,
      "inputs": [
        {
          "name": "_pepeId",
          "type": "uint256"
        },
        {
          "name": "_cozyCandidate",
          "type": "uint256"
        },
        {
          "name": "_candidateAsFather",
          "type": "bool"
        },
        {
          "name": "_pepeReceiver",
          "type": "address"
        }
      ],
      "name": "buyCozy",
      "outputs": [],
      "payable": true,
      "stateMutability": "payable",
      "type": "function"
    },
    {
      "constant": false,
      "inputs": [
        {
          "name": "_pepeId",
          "type": "uint256"
        },
        {
          "name": "_cozyCandidate",
          "type": "uint256"
        },
        {
          "name": "_candidateAsFather",
          "type": "bool"
        },
        {
          "name": "_pepeReceiver",
          "type": "address"
        },
        {
          "name": "_affiliate",
          "type": "address"
        }
      ],
      "name": "buyCozyAffiliated",
      "outputs": [],
      "payable": true,
      "stateMutability": "payable",
      "type": "function"
    }
  ],
  "bytecode": "0x608060405261927c60055534801561001657600080fd5b506040516040806112368339810160405280516020909101516000805433600160a060020a0319918216811783556001805483169091179055600380548216600160a060020a0395861617905560048054909116939092169290921790556111b290819061008490396000f3006080604052600436106100da5763ffffffff7c01000000000000000000000000000000000000000000000000000000006000350416630117200581146100df5780631887a4d0146101105780631c31f710146101255780632d4a170a1461014857806338af3eed14610172578063571a26a0146101875780636a1db1bf146101e957806374a25d43146102015780638da5cb5b1461022c578063a6da467c14610241578063a8f5c67314610266578063d024cd021461027e578063d3ce71df146102b5578063ddca3f43146102d4578063f2fde38b146102e9575b600080fd5b3480156100eb57600080fd5b506100f461030a565b60408051600160a060020a039092168252519081900360200190f35b34801561011c57600080fd5b506100f4610319565b34801561013157600080fd5b50610146600160a060020a0360043516610328565b005b34801561015457600080fd5b5061016060043561036e565b60408051918252519081900360200190f35b34801561017e57600080fd5b506100f4610413565b34801561019357600080fd5b5061019f600435610422565b60408051600160a060020a039097168752602087019590955267ffffffffffffffff93841686860152919092166060850152608084019190915260a0830152519081900360c00190f35b3480156101f557600080fd5b50610146600435610475565b34801561020d57600080fd5b5061014660043560243560443567ffffffffffffffff6064351661049f565b34801561023857600080fd5b506100f4610558565b6101466004356024356044351515600160a060020a0360643581169060843516610567565b34801561027257600080fd5b50610146600435610600565b34801561028a57600080fd5b5061014660043560243560443567ffffffffffffffff60643516600160a060020a0360843516610782565b6101466004356024356044351515600160a060020a0360643516610836565b3480156102e057600080fd5b50610160610d40565b3480156102f557600080fd5b50610146600160a060020a0360043516610d46565b600454600160a060020a031681565b600354600160a060020a031681565b600054600160a060020a0316331461033f57600080fd5b6001805473ffffffffffffffffffffffffffffffffffffffff1916600160a060020a0392909216919091179055565b600081815260026020819052604082209081015467ffffffffffffffff808216429081039285928392839283926801000000000000000090910416116103ba5785600401549650610408565b600386015460048701546002880154919003945067ffffffffffffffff8082166801000000000000000090920416039250828585028115156103f857fe5b0591508186600301540190508096505b505050505050919050565b600154600160a060020a031681565b600260208190526000918252604090912080546001820154928201546003830154600490930154600160a060020a03909216939267ffffffffffffffff8083169368010000000000000000909304169186565b600054600160a060020a0316331461048c57600080fd5b600554811061049a57600080fd5b600555565b600354604080517f62bc63c40000000000000000000000000000000000000000000000000000000081526004810187905290514292600160a060020a0316916362bc63c49160248083019260209291908290030181600087803b15801561050557600080fd5b505af1158015610519573d6000803e3d6000fd5b505050506040513d602081101561052f57600080fd5b505167ffffffffffffffff16111561054657600080fd5b61055284848484610dda565b50505050565b600054600160a060020a031681565b60048054604080517f7352e4b80000000000000000000000000000000000000000000000000000000081523393810193909352600160a060020a0384811660248501529051911691637352e4b891604480830192600092919082900301818387803b1580156105d557600080fd5b505af11580156105e9573d6000803e3d6000fd5b505050506105f985858585610836565b5050505050565b60008181526002602081905260409091200154426801000000000000000090910467ffffffffffffffff161061063557600080fd5b60035460008281526002602090815260408083205481517fa9059cbb000000000000000000000000000000000000000000000000000000008152600160a060020a03918216600482015260248101879052915194169363a9059cbb93604480840194938390030190829087803b1580156106ae57600080fd5b505af11580156106c2573d6000803e3d6000fd5b505050506040513d60208110156106d857600080fd5b505115156106e557600080fd5b600081815260026020526040808220549051600160a060020a039091169183917f95b73f79c6d7b09d4dd9a323589aec50a424621f53a70ece1cc21aa75554b5199190a360009081526002602081905260408220805473ffffffffffffffffffffffffffffffffffffffff191681556001810183905590810180546fffffffffffffffffffffffffffffffff191690556003810182905560040155565b600354604080517f62bc63c40000000000000000000000000000000000000000000000000000000081526004810188905290514292600160a060020a0316916362bc63c49160248083019260209291908290030181600087803b1580156107e857600080fd5b505af11580156107fc573d6000803e3d6000fd5b505050506040513d602081101561081257600080fd5b505167ffffffffffffffff16111561082957600080fd5b6105f98585858585610fda565b600354600090819081908190600160a060020a0316331461085657600080fd5b60008881526002602081905260409091209081015490945068010000000000000000900467ffffffffffffffff16421061088f57600080fd5b6108988861036e565b9250348311156108a757600080fd5b600554620f42409084028554604051929091049350600160a060020a03169083850380156108fc02916000818181858888f193505050501580156108ef573d6000803e3d6000fd5b5060048054604080517f873abd75000000000000000000000000000000000000000000000000000000008152600160a060020a03898116948201949094529051929091169163873abd75916024808201926020929091908290030181600087803b15801561095c57600080fd5b505af1158015610970573d6000803e3d6000fd5b505050506040513d602081101561098657600080fd5b50519050600160a060020a038116158015906109c55750604051600160a060020a038216906002840480156108fc02916000818181858888f193505050505b15610a0c57600154604051600160a060020a03909116906002840480156108fc02916000818181858888f19350505050158015610a06573d6000803e3d6000fd5b50610a48565b600154604051600160a060020a039091169083156108fc029084906000818181858888f19350505050158015610a46573d6000803e3d6000fd5b505b8515610b05576003546001850154604080517fc29338cf0000000000000000000000000000000000000000000000000000000081526004810192909252602482018a9052600160a060020a038881166044840152905192169163c29338cf916064808201926020929091908290030181600087803b158015610ac957600080fd5b505af1158015610add573d6000803e3d6000fd5b505050506040513d6020811015610af357600080fd5b50511515610b0057600080fd5b610bb7565b6003546001850154604080517fc29338cf000000000000000000000000000000000000000000000000000000008152600481018b90526024810192909252600160a060020a038881166044840152905192169163c29338cf916064808201926020929091908290030181600087803b158015610b8057600080fd5b505af1158015610b94573d6000803e3d6000fd5b505050506040513d6020811015610baa57600080fd5b50511515610bb757600080fd5b6003548454604080517fa9059cbb000000000000000000000000000000000000000000000000000000008152600160a060020a039283166004820152602481018c90529051919092169163a9059cbb9160448083019260209291908290030181600087803b158015610c2857600080fd5b505af1158015610c3c573d6000803e3d6000fd5b505050506040513d6020811015610c5257600080fd5b50511515610c5f57600080fd5b82341115610ca157604051600160a060020a038616903485900380156108fc02916000818181858888f19350505050158015610c9f573d6000803e3d6000fd5b505b8354604051600160a060020a03918216918716908a907f94ffdfa810a5f08da0ec8ea0f74619814453cfc101a90504a3a8f77e0eb6198690600090a4505050600094855250506002602081905260408420805473ffffffffffffffffffffffffffffffffffffffff191681556001810185905590810180546fffffffffffffffffffffffffffffffff1916905560038101849055600401929092555050565b60055481565b600054600160a060020a03163314610d5d57600080fd5b600160a060020a0381161515610d7257600080fd5b60008054604051600160a060020a03808516939216917f8be0079c531659141344cd1fd0a4f28419497f9722a3daafe3b4186f6b6457e091a36000805473ffffffffffffffffffffffffffffffffffffffff1916600160a060020a0392909216919091179055565b610de2611151565b600354604080517f23b872dd000000000000000000000000000000000000000000000000000000008152336004820152306024820152604481018890529051600160a060020a03909216916323b872dd916064808201926020929091908290030181600087803b158015610e5557600080fd5b505af1158015610e69573d6000803e3d6000fd5b505050506040513d6020811015610e7f57600080fd5b50511515610e8c57600080fd5b6000858152600260208190526040909120015468010000000000000000900467ffffffffffffffff164211610ec057600080fd5b338152602081018590524267ffffffffffffffff81811660408401819052918401166060830181905211610ef357600080fd5b6080810184815260a0820184815260008781526002602081815260408084208751815473ffffffffffffffffffffffffffffffffffffffff1916600160a060020a03909116178155918701516001830155808701519282018054606089015167ffffffffffffffff1990911667ffffffffffffffff958616176fffffffffffffffff000000000000000019166801000000000000000095909116949094029390931790925593516003850155915160049093019290925551339187917f16da476d7265fc95576888b93de4fa4849d6cea1228235887f569c6530ddfec19190a35050505050565b610fe2611151565b600354600160a060020a03163314610ff957600080fd5b6000868152600260208190526040909120015468010000000000000000900467ffffffffffffffff16421161102d57600080fd5b600160a060020a0382168152602081018690524267ffffffffffffffff8181166040840181905291850116606083018190521161106957600080fd5b6080810185815260a0820185815260008881526002602081815260408084208751815473ffffffffffffffffffffffffffffffffffffffff1916600160a060020a0391821617825592880151600182015581880151938101805460608a015167ffffffffffffffff1990911667ffffffffffffffff968716176fffffffffffffffff000000000000000019166801000000000000000096909116959095029490941790935594516003830155925160049091015591519084169188917f16da476d7265fc95576888b93de4fa4849d6cea1228235887f569c6530ddfec19190a3505050505050565b6040805160c081018252600080825260208201819052918101829052606081018290526080810182905260a0810191909152905600a165627a7a723058201cec7f1d6e716f944c5bddb593d9265adead932a906336ba78cfa2eb47eff6a30029",
  "source": "pragma solidity ^0.4.19;\n\nimport \"./AuctionBase.sol\";\n\n//Most functionality is in the AuctionBase contract.\n//This contract is to buy the right to cozyTime with pepe.\ncontract CozyTimeAuction is AuctionBase {\n\n  constructor(address _pepeContract, address _affiliateContract) AuctionBase(_pepeContract, _affiliateContract) public {\n\n  }\n\n  function startAuction(uint256 _pepeId, uint256 _beginPrice, uint256 _endPrice, uint64 _duration) public {\n      require(pepeContract.getCozyAgain(_pepeId) <= now);//need to have this extra check\n      super.startAuction(_pepeId, _beginPrice, _endPrice, _duration);\n  }\n\n  function startAuctionDirect(uint256 _pepeId, uint256 _beginPrice, uint256 _endPrice, uint64 _duration, address _seller) public {\n      require(pepeContract.getCozyAgain(_pepeId) <= now);//need to have this extra check\n      super.startAuctionDirect(_pepeId, _beginPrice, _endPrice, _duration, _seller);\n  }\n\n  function buyCozy(uint256 _pepeId, uint256 _cozyCandidate, bool _candidateAsFather, address _pepeReceiver) payable public {\n      require(address(pepeContract) == msg.sender); //caller needs to be the PepeBase contract\n\n      PepeAuction storage auction = auctions[_pepeId];\n      require(now < auction.auctionEnd);// auction must be still going\n\n      uint256 price = calculateBid(_pepeId);\n      require(msg.value >= price);//must send enough ether\n      uint256 totalFee = price * fee / feeDivider; //safe math needed?\n\n      //Send ETH to seller\n      auction.seller.transfer(price - totalFee);\n      //send ETH to beneficiary\n\n      address affiliate = affiliateContract.userToAffiliate(_pepeReceiver);\n\n      if(affiliate != address(0) && affiliate.send(totalFee / 2)) { //if user has affiliate\n          beneficiary.transfer(totalFee / 2);\n      } else {\n          beneficiary.transfer(totalFee);\n      }\n\n      //actual cozytiming\n      if (_candidateAsFather) {\n        if(!pepeContract.cozyTime(auction.pepeId, _cozyCandidate, _pepeReceiver)){\n          revert();\n        }\n      } else {\n        // Swap around the two pepes, they have no set gender, the user decides what they are.\n        if(!pepeContract.cozyTime(_cozyCandidate, auction.pepeId, _pepeReceiver)){\n          revert();\n        }\n      }\n\n      //Send pepe to seller of auction\n      if(!pepeContract.transfer(auction.seller, _pepeId)) {\n        revert(); //can't complete transfer if this fails\n      }\n\n      if(msg.value > price) { //return ether send to much\n        _pepeReceiver.transfer(msg.value - price);\n      }\n\n      emit AuctionWon(_pepeId, _pepeReceiver, auction.seller);//emit event\n\n      delete auctions[_pepeId];//deletes auction\n  }\n\n  function buyCozyAffiliated(uint256 _pepeId, uint256 _cozyCandidate, bool _candidateAsFather, address _pepeReceiver, address _affiliate) payable public {\n      affiliateContract.setAffiliate(msg.sender, _affiliate);\n      buyCozy(_pepeId, _cozyCandidate, _candidateAsFather, _pepeReceiver);\n  }\n}\n",
  "sourcePath": "/Users/mickdegraaf/Documents/development/cryptopepe-smartcontracts/contracts/CozyTimeAuction.sol",
  "compiler": {
    "name": "solc",
    "version": "0.4.24+commit.e67f0147.Emscripten.clang"
  },
  "schemaVersion": "2.0.0",
  "updatedAt": "2018-05-28T16:01:54.031Z"
}