{
  "contractName": "Genetic",
  "abi": [
    {
      "constant": true,
      "inputs": [
        {
          "name": "a",
          "type": "uint32[4]"
        },
        {
          "name": "b",
          "type": "uint32[4]"
        },
        {
          "name": "locii",
          "type": "uint16[4]"
        },
        {
          "name": "crossoverCount",
          "type": "uint8"
        }
      ],
      "name": "crossovers",
      "outputs": [
        {
          "name": "",
          "type": "uint32[4]"
        }
      ],
      "payable": false,
      "stateMutability": "pure",
      "type": "function"
    },
    {
      "constant": true,
      "inputs": [
        {
          "name": "randomHash",
          "type": "uint256"
        }
      ],
      "name": "pickCrossovers",
      "outputs": [
        {
          "name": "",
          "type": "uint16[4]"
        },
        {
          "name": "",
          "type": "uint256"
        },
        {
          "name": "",
          "type": "uint8"
        }
      ],
      "payable": false,
      "stateMutability": "pure",
      "type": "function"
    },
    {
      "constant": true,
      "inputs": [
        {
          "name": "mother",
          "type": "uint32[4][2][2]"
        },
        {
          "name": "father",
          "type": "uint32[4][2][2]"
        }
      ],
      "name": "breed",
      "outputs": [
        {
          "name": "",
          "type": "uint32[4][2][2]"
        }
      ],
      "payable": false,
      "stateMutability": "view",
      "type": "function"
    },
    {
      "constant": true,
      "inputs": [
        {
          "name": "seed",
          "type": "uint256"
        }
      ],
      "name": "randomDNA",
      "outputs": [
        {
          "name": "",
          "type": "uint32[4][2][2]"
        }
      ],
      "payable": false,
      "stateMutability": "pure",
      "type": "function"
    }
  ],
  "bytecode": "0x608060405234801561001057600080fd5b50610c95806100206000396000f3006080604052600436106100615763ffffffff7c010000000000000000000000000000000000000000000000000000000060003504166318b95fb681146100665780639716cad8146100c55780639b2843e214610278578063eede4c16146102fd575b600080fd5b34801561007257600080fd5b5061007e6004356103c8565b6040518084608080838360005b838110156100a357818101518382015260200161008b565b5050505091909101938452505060ff1660208201526040805191829003019150f35b3480156100d157600080fd5b50604080518082019091526101fb903690600490610204908260026000835b8282101561015e57604080518082019091526101008302850160026000835b8282101561014b57604080516080818101909252908084028601906004908390839080828437505050918352505060019091019060200161010f565b50505050815260200190600101906100f0565b505060408051808201909152929594936102008101939250905060026000835b828210156101ec57604080518082019091526101008302850160026000835b828210156101d957604080516080818101909252908084028601906004908390839080828437505050918352505060019091019060200161019d565b505050508152602001906001019061017e565b5092955061045b945050505050565b6040516000826002835b81841015610268578284602002015160026000925b8184101561025a5760208402830151608080838360005b83811015610249578181015183820152602001610231565b50505050905001926001019261021a565b925050509260010192610205565b9250505091505060405180910390f35b34801561028457600080fd5b506102906004356107a2565b6040516000826002835b81841015610268578284602002015160026000925b818410156102ef5760208402830151608080838360005b838110156102de5781810151838201526020016102c6565b5050505090500192600101926102af565b92505050926001019261029a565b34801561030957600080fd5b506040805160808181019092526103909136916004916084919083908190839082908082843750506040805160808181019092529497969581810195945092506004915083908390808284375050604080516080818101909252949796958181019594509250600491508390839080828437509396505050913560ff16925061094f915050565b6040518082608080838360005b838110156103b557818101518382015260200161039d565b5050505090500191505060405180910390f35b6103d0610bec565b6000806103db610bec565b600080805b608061ffff8316101561044e57608080890498605f166001818101955093019092019161ffff8316106104125761044e565b818460ff83166004811061042257fe5b61ffff909216602092909202015260018101906004600290910160ff16106104495761044e565b6103e0565b9297929550919350505050565b610463610c0b565b61046b610c0b565b6000806000610478610bec565b60008060008060008098505b600263ffffffff8a1610156107915760408051426020808301919091527c010000000000000000000000000000000000000000000000000000000063ffffffff8d160282840152825160248184030181526044909201928390528151600293918291908401908083835b6020831061050d5780518252601f1990920191602091820191016104ee565b51815160209384036101000a600019018019909216911617905260405191909301945091925050808303816000865af115801561054e573d6000803e3d6000fd5b5050506040513d602081101561056357600080fd5b50516002810498506001169650610579886103c8565b60028083049b5092985090965094506001861693506105ee908e908590811061059e57fe5b602002015163ffffffff8b16600281106105b457fe5b60200201518e60ff600187900316600281106105cc57fe5b602002015163ffffffff8c16600281106105e257fe5b6020020151888761094f565b8a60ff8916600281106105fd57fe5b602002015163ffffffff8b166002811061061357fe5b6020020152610621886103c8565b60028083049b509298509096509450600186169350610674908d908590811061064657fe5b602002015163ffffffff8b166002811061065c57fe5b60200201518d60ff600187900316600281106105cc57fe5b8a60ff60018a9003166002811061068757fe5b602002015163ffffffff8b166002811061069d57fe5b6020020152600091505b600460ff83161015610786575060005b600560ff82161080156106cd5750876001166001145b1561077b57600297889004888104986001909116975060078916810a908b90899081106106f657fe5b602002015163ffffffff8b166002811061070c57fe5b602002015160ff84166004811061071f57fe5b6020020151188a60ff89166002811061073457fe5b602002015163ffffffff8b166002811061074a57fe5b602002015160ff84166004811061075d57fe5b63ffffffff90921660209290920201526008909704966001016106b7565b6001909101906106a7565b600190980197610484565b50979b9a5050505050505050505050565b6107aa610c0b565b6107b2610c0b565b600080805b600263ffffffff84161015610945576040805160208082018990527c010000000000000000000000000000000000000000000000000000000063ffffffff87160282840152825160248184030181526044909201928390528151600293918291908401908083835b6020831061083e5780518252601f19909201916020918201910161081f565b51815160209384036101000a600019018019909216911617905260405191909301945091925050808303816000865af115801561087f573d6000803e3d6000fd5b5050506040513d602081101561089457600080fd5b50519150600090505b600460ff8216101561093a578351829063ffffffff8516600281106108be57fe5b602002015160ff8316600481106108d157fe5b63ffffffff90921660209290920201526401000000009091049081846001602002015163ffffffff85166002811061090557fe5b602002015160ff83166004811061091857fe5b63ffffffff90921660209290920201526401000000009091049060010161089d565b6001909201916107b7565b5091949350505050565b610957610bec565b61095f610bec565b600080808080808060ff8a1681111561097757600080fd5b60ff8a1660041161098757600080fd5b607f8b60ff8c166004811061099857fe5b61ffff9092166020929092020152600096508695508594505b8960010160ff168560ff161015610bdb5760058b60ff8716600481106109d357fe5b602002015161ffff169060020a90049350600560ff168461ffff169060020a028b8660ff16600481101515610a0457fe5b60200201510392508960ff168560ff161415610a1f57602092505b8361ffff168761ffff161415610aa957602083810361ffff908116600290810a600019908101938a9003831690910a0191909118925082908e90861660048110610a6557fe5b6020020151169150818861ffff861660048110610a7e57fe5b6020020151178861ffff861660048110610a9457fe5b63ffffffff9092166020929092020152610bc2565b61ffff6020879003811660020a60001901925082908e90891660048110610acc57fe5b6020020151169150818861ffff891660048110610ae557fe5b6020020151178861ffff891660048110610afb57fe5b63ffffffff909216602092909202015250600186015b8361ffff168161ffff161015610b5e578c61ffff821660048110610b3157fe5b60200201518861ffff831660048110610b4657fe5b63ffffffff9092166020929092020152600101610b11565b61ffff6020849003811660020a6000190119925082908e90861660048110610b8257fe5b6020020151169150818861ffff861660048110610b9b57fe5b6020020151178861ffff861660048110610bb157fe5b63ffffffff90921660209290920201525b9a9b9a92955090935060019092019184918491906109b1565b50959b9a5050505050505050505050565b6080604051908101604052806004906020820280388339509192915050565b610200604051908101604052806002905b610c24610c3a565b815260200190600190039081610c1c5790505090565b610100604051908101604052806002905b610c53610bec565b815260200190600190039081610c4b57905050905600a165627a7a72305820930ac1710e69edcdca648467258c897d28c841935801af10492d31f540fdd3b30029",
  "source": "pragma solidity ^0.4.19;\n//important: 0.4.19 is minimum,\n// this version introduces support for declaring array sizes with constant variables.\n// Update truffle dep: cd $(node -g root)/truffle/ && npm i solc@0.4.19\n\n\ncontract Genetic {\n\n    //maximum cross over length; 2^C\n    uint8 constant C = 5;\n    uint8 constant C_MASK = uint8(1) << C - 1;\n\n    // maximum number of random mutations per chromatid\n    uint8 constant R = 5;\n\n    // number of elements per chromatid\n    uint8 internal constant L = 4;\n\n    uint8 constant B_POW = 5;\n    //number of bits per element of chromatid\n    //Note; also change the uintX format of the DNA to uintB.\n    uint16 constant B = uint16(1) << B_POW;\n\n    uint16 constant ChromatidBits = uint16(L) << B_POW;\n\n    //maximum of 4 crossovers\n    uint8 constant X = 4;\n\n    // number of chromosomes\n    uint8 internal constant N = 2;\n\n    //Genotype is structured as: bytes8[L][N][2],\n    // note: 2 is the outermost length, accessed with genotype[<num>].\n\n    //Note: optimization: instead of producing both sides of the crossover,\n    // only produce the side that will be used later.\n    //More optimization: do multiple crossovers at once.\n    //\n    //IMPORTANT: the global_locii and local_locii last slot is used to end the crossovers.\n    function crossovers(uint32[L] a, uint32[L] b,\n        uint16[X] locii, uint8 crossoverCount)\n            public pure returns (uint32[L]) {\n\n        require(crossoverCount >= 0);\n        require(locii.length > crossoverCount);\n\n        //the last crossover ends at the end of the chromatid\n        locii[crossoverCount] = ChromatidBits - 1;\n\n        uint32[L] memory result;\n\n        //the first crossover starts at the start of the chromatid\n        uint16 prev_global_loc = 0;\n        uint16 prev_local_loc = 0;\n\n        //for each global locus\n        for (uint8 i = 0; i < crossoverCount + 1; i++) {\n            // global level is a list of lists (L times a bitstring of length B)\n            uint16 global_loc = locii[i] >> B_POW;\n            uint16 local_loc = locii[i] - (global_loc << B_POW);\n\n            //last crossover target is the end of the chromatid.\n            if (i == crossoverCount) {\n                local_loc = B;\n            }\n\n            uint32 mask;\n\n            if (prev_global_loc == global_loc) {\n                //same context as previous crossover, be more careful, but quicker\n                //00001111111, 1s start at offset\n                mask = (uint32(1) << (B - prev_local_loc)) - 1;\n                //00001111000, 0s start at offset\n                mask = mask ^ ((uint32(1) << (B - local_loc)) - 1);\n                //get the masked part of a\n                mask = a[global_loc] & mask;\n                //apply it to the result\n                result[global_loc] = result[global_loc] | mask;\n            } else {\n                //multi-part crossover\n\n                //start of the crossover: copy bits start from the previous local locus (incl)\n                //00001111111, 1s start at offset\n                mask = (uint32(1) << (B - prev_local_loc)) - 1;\n                //get the masked part of a\n                mask = a[prev_global_loc] & mask;\n                //apply it to the result\n                result[prev_global_loc] = result[prev_global_loc] | mask;\n\n                //in between ends: just copy completely, without masking bits.\n                for (uint16 x = prev_global_loc + 1; x < global_loc; x++) {\n                    result[x] = a[x];\n                }\n\n                //end of the crossover: copy bits up to the local locus (excl)\n                //invert mask, we want the high-end\n                //~(00001111111)  --> 11110000000\n                mask = ~((uint32(1) << (B - local_loc)) - 1);\n                mask = a[global_loc] & mask;\n\n                //apply it to the result\n                result[global_loc] = result[global_loc] | mask;\n            }\n\n            //crossover\n            (a, b) = (b, a);\n\n            prev_global_loc = global_loc;\n            prev_local_loc = local_loc;\n        }\n\n        return result;\n    }\n\n    function pickCrossovers(uint256 randomHash) public pure returns (uint16[X], uint256, uint8) {\n        // Randomly pick some crossovers\n        uint16[X] memory locii;\n        uint16 increase;\n        uint16 j;\n        uint8 crossoverCount = 0;\n        for (j = 0; j < ChromatidBits; ) {\n\n            //make a random step towards the end, always minimum 1 (must be increasing)\n            increase = (uint16(randomHash) & 0x5F) + 1;\n            randomHash = randomHash >> 7;\n            j += increase;\n            if(j >= ChromatidBits) {\n                break;\n            }\n\n            //add this locus to the list of locii, this is were a crossover starts\n            locii[crossoverCount] = j;\n\n            //count how many crossovers we have\n            crossoverCount += 1;\n\n            //last array-slot should be unused\n            if (crossoverCount + 1 >= X) {\n                break;\n            }\n        }\n        return (locii, randomHash, crossoverCount);\n    }\n\n    function breed(uint32[L][N][2] mother, uint32[L][N][2] father) public view returns (uint32[L][N][2]) {\n        // Meiosis I: recombining alleles (Chromosomal crossovers)\n\n        // Note about optimization I: no cell duplication,\n        //  producing 2 seeds/eggs per cell is enough, instead of 4 (like humans do)\n\n        // Note about optimization II: crossovers happen,\n        //  but only 1 side of the result is computed,\n        //  as the other side will not affect anything.\n\n        uint32[L][N][2] memory result;\n\n        // Prophase I: Crossovers\n        // Methaphase I: After crossovers, split the pairs\n        for (uint32 i = 0; i < N; i++) {\n\n            //TODO improve randomness!\n            //The RNG for the breeding: using the sha256 timestamp of the block\n            uint256 randomHash = uint256(sha256(abi.encodePacked(block.timestamp, i)));\n\n            //get a random 1 or 0\n            uint8 swapOrder = uint8(randomHash & 1);\n            randomHash = randomHash >> 1;\n\n            // Create cross-over locii\n            (uint16[X] memory locii, uint256 randomHashAfter, uint8 crossoverCount) = pickCrossovers(randomHash);\n            randomHash = randomHashAfter;\n\n            // Meiosis II: select one half of each pair (can be swapped with swapChromatid)\n            // Also: the pair can chromatids may be switched around. (swapOrder)\n            //get a random 1 or 0\n            uint8 swapChromatid = uint8(randomHash & 1);\n            randomHash = randomHash >> 1;\n            result[swapOrder][i] = crossovers(mother[swapChromatid][i], mother[1 - swapChromatid][i], locii, crossoverCount);\n\n            // Same for father\n            (locii, randomHashAfter, crossoverCount) = pickCrossovers(randomHash);\n            randomHash = randomHashAfter;\n            //get a random 1 or 0\n            swapChromatid = uint8(randomHash & 1);\n            randomHash = randomHash >> 1;\n            result[1 - swapOrder][i] = crossovers(father[swapChromatid][i], father[1 - swapChromatid][i], locii, crossoverCount);\n\n            // Random mutations\n            // -------------------------------------------------------------------------------------\n            for (uint8 g = 0; g < L; g++) {\n                //make a random number of permutations, maximum R\n                for (uint8 r = 0; r < R && (randomHash & 1 == 1); r++) {\n                    randomHash = randomHash >> 1;\n\n                    //get a random 1 or 0\n                    swapOrder = uint8(randomHash & 1);\n                    randomHash = randomHash >> 1;\n\n                    //(uint8(randomHash) & 0x7)  --> get a random number in [0, 127] (incl)\n\n                    //change a random bit on a location somewhere in [0, 127] (incl)\n                    result[swapOrder][i][g] = result[swapOrder][i][g] ^ (uint32(1) << (uint8(randomHash) & 0x7));\n                    randomHash = randomHash >> 3;\n                }\n            }\n        }\n\n        return result;\n    }\n\n    // Generates (psuedo) random Pepe DNA\n    function randomDNA(uint256 seed) public pure returns (uint32[L][N][2]) {\n\n        uint32[L][N][2] memory result;\n\n        for (uint32 i = 0; i < N; i++) {\n            uint256 chromosome_seed = uint256(sha256(abi.encodePacked(seed, i)));\n\n            // just enough bits: 256 == (L * 2 * 32), where L = 4\n            for (uint8 j = 0; j < L; j++) {\n                result[0][i][j] = uint32(chromosome_seed);\n                chromosome_seed = chromosome_seed >> 32;\n\n                result[1][i][j] = uint32(chromosome_seed);\n                chromosome_seed = chromosome_seed >> 32;\n            }\n        }\n\n        return result;\n    }\n\n}\n",
  "sourcePath": "/Users/mickdegraaf/Documents/development/cryptopepe-smartcontracts/contracts/Genetic.sol",
  "compiler": {
    "name": "solc",
    "version": "0.4.24+commit.e67f0147.Emscripten.clang"
  },
  "schemaVersion": "2.0.0",
  "updatedAt": "2018-05-28T16:01:54.056Z"
}