{
  "contractName": "Haltable",
  "abi": [
    {
      "constant": true,
      "inputs": [],
      "name": "owner",
      "outputs": [
        {
          "name": "",
          "type": "address"
        }
      ],
      "payable": false,
      "stateMutability": "view",
      "type": "function"
    },
    {
      "constant": true,
      "inputs": [],
      "name": "halted",
      "outputs": [
        {
          "name": "",
          "type": "bool"
        }
      ],
      "payable": false,
      "stateMutability": "view",
      "type": "function"
    },
    {
      "constant": true,
      "inputs": [],
      "name": "haltTime",
      "outputs": [
        {
          "name": "",
          "type": "uint256"
        }
      ],
      "payable": false,
      "stateMutability": "view",
      "type": "function"
    },
    {
      "constant": false,
      "inputs": [
        {
          "name": "newOwner",
          "type": "address"
        }
      ],
      "name": "transferOwnership",
      "outputs": [],
      "payable": false,
      "stateMutability": "nonpayable",
      "type": "function"
    },
    {
      "anonymous": false,
      "inputs": [
        {
          "indexed": true,
          "name": "previousOwner",
          "type": "address"
        },
        {
          "indexed": true,
          "name": "newOwner",
          "type": "address"
        }
      ],
      "name": "OwnershipTransferred",
      "type": "event"
    },
    {
      "constant": false,
      "inputs": [
        {
          "name": "_duration",
          "type": "uint256"
        }
      ],
      "name": "halt",
      "outputs": [],
      "payable": false,
      "stateMutability": "nonpayable",
      "type": "function"
    },
    {
      "constant": false,
      "inputs": [],
      "name": "unhalt",
      "outputs": [],
      "payable": false,
      "stateMutability": "nonpayable",
      "type": "function"
    }
  ],
  "bytecode": "0x60806040526212750060035560008054600160a060020a031916331790556103118061002c6000396000f3006080604052600436106100775763ffffffff7c01000000000000000000000000000000000000000000000000000000006000350416638da5cb5b811461007c578063b9b8af0b146100ba578063cb3e64fd146100e3578063ee66875a146100fa578063f2fde38b14610121578063fb1fad501461014f575b600080fd5b34801561008857600080fd5b50610091610167565b6040805173ffffffffffffffffffffffffffffffffffffffff9092168252519081900360200190f35b3480156100c657600080fd5b506100cf610183565b604080519115158252519081900360200190f35b3480156100ef57600080fd5b506100f861018c565b005b34801561010657600080fd5b5061010f6101ce565b60408051918252519081900360200190f35b34801561012d57600080fd5b506100f873ffffffffffffffffffffffffffffffffffffffff600435166101d4565b34801561015b57600080fd5b506100f860043561029c565b60005473ffffffffffffffffffffffffffffffffffffffff1681565b60025460ff1681565b600354600154014211806101b7575060005473ffffffffffffffffffffffffffffffffffffffff1633145b15156101c257600080fd5b6002805460ff19169055565b60015481565b60005473ffffffffffffffffffffffffffffffffffffffff1633146101f857600080fd5b73ffffffffffffffffffffffffffffffffffffffff8116151561021a57600080fd5b6000805460405173ffffffffffffffffffffffffffffffffffffffff808516939216917f8be0079c531659141344cd1fd0a4f28419497f9722a3daafe3b4186f6b6457e091a36000805473ffffffffffffffffffffffffffffffffffffffff191673ffffffffffffffffffffffffffffffffffffffff92909216919091179055565b60005473ffffffffffffffffffffffffffffffffffffffff1633146102c057600080fd5b600154156102cd57600080fd5b6003556002805460ff191660019081179091554290555600a165627a7a72305820fd82bbdd201b235ab0d70abddd00c50d9499b7f4aa4def50564a791795a4b6590029",
  "source": "pragma solidity ^0.4.19;\n\nimport \"openzeppelin-solidity/contracts/ownership/Ownable.sol\";\n\ncontract Haltable is Ownable {\n    uint256 public haltTime; //when the contract was halted\n    bool public halted;//is the contract halted?\n    uint256 haltDuration = 2 weeks;//how long the contract can be halted\n\n    modifier stopWhenHalted {\n        require(!halted);\n        _;\n    }\n\n    modifier onlyWhenHalted {\n        require(halted);\n        _;\n    }\n\n    function halt(uint256 _duration) onlyOwner public {\n        require(haltTime == 0); //cannot halt if it was halted before\n        haltDuration = _duration;\n        halted = true;\n        haltTime = now;\n    }\n\n    function unhalt() public {\n        require(now > haltTime + haltDuration || msg.sender == owner);//unhalting is only possible when haltTime has passed or the owner unhalts\n        halted = false;\n    }\n\n}\n",
  "sourcePath": "/Users/mickdegraaf/Documents/development/cryptopepe-smartcontracts/contracts/Haltable.sol",
  "compiler": {
    "name": "solc",
    "version": "0.4.24+commit.e67f0147.Emscripten.clang"
  },
  "schemaVersion": "2.0.0",
  "updatedAt": "2018-05-28T16:01:54.027Z"
}