{
  "contractName": "PepeGrinder",
  "abi": [
    {
      "constant": false,
      "inputs": [
        {
          "name": "_spender",
          "type": "address"
        },
        {
          "name": "_value",
          "type": "uint256"
        }
      ],
      "name": "approve",
      "outputs": [
        {
          "name": "",
          "type": "bool"
        }
      ],
      "payable": false,
      "stateMutability": "nonpayable",
      "type": "function"
    },
    {
      "constant": true,
      "inputs": [],
      "name": "totalSupply",
      "outputs": [
        {
          "name": "",
          "type": "uint256"
        }
      ],
      "payable": false,
      "stateMutability": "view",
      "type": "function"
    },
    {
      "constant": false,
      "inputs": [
        {
          "name": "_from",
          "type": "address"
        },
        {
          "name": "_to",
          "type": "address"
        },
        {
          "name": "_value",
          "type": "uint256"
        }
      ],
      "name": "transferFrom",
      "outputs": [
        {
          "name": "",
          "type": "bool"
        }
      ],
      "payable": false,
      "stateMutability": "nonpayable",
      "type": "function"
    },
    {
      "constant": false,
      "inputs": [
        {
          "name": "_to",
          "type": "address"
        },
        {
          "name": "_value",
          "type": "uint256"
        },
        {
          "name": "_data",
          "type": "bytes"
        }
      ],
      "name": "transferAndCall",
      "outputs": [
        {
          "name": "",
          "type": "bool"
        }
      ],
      "payable": true,
      "stateMutability": "payable",
      "type": "function"
    },
    {
      "constant": false,
      "inputs": [
        {
          "name": "_spender",
          "type": "address"
        },
        {
          "name": "_subtractedValue",
          "type": "uint256"
        }
      ],
      "name": "decreaseApproval",
      "outputs": [
        {
          "name": "",
          "type": "bool"
        }
      ],
      "payable": false,
      "stateMutability": "nonpayable",
      "type": "function"
    },
    {
      "constant": true,
      "inputs": [
        {
          "name": "_owner",
          "type": "address"
        }
      ],
      "name": "balanceOf",
      "outputs": [
        {
          "name": "",
          "type": "uint256"
        }
      ],
      "payable": false,
      "stateMutability": "view",
      "type": "function"
    },
    {
      "constant": false,
      "inputs": [
        {
          "name": "_spender",
          "type": "address"
        },
        {
          "name": "_addedValue",
          "type": "uint256"
        },
        {
          "name": "_data",
          "type": "bytes"
        }
      ],
      "name": "increaseApprovalAndCall",
      "outputs": [
        {
          "name": "",
          "type": "bool"
        }
      ],
      "payable": true,
      "stateMutability": "payable",
      "type": "function"
    },
    {
      "constant": false,
      "inputs": [
        {
          "name": "_to",
          "type": "address"
        },
        {
          "name": "_value",
          "type": "uint256"
        }
      ],
      "name": "transfer",
      "outputs": [
        {
          "name": "",
          "type": "bool"
        }
      ],
      "payable": false,
      "stateMutability": "nonpayable",
      "type": "function"
    },
    {
      "constant": false,
      "inputs": [
        {
          "name": "_from",
          "type": "address"
        },
        {
          "name": "_to",
          "type": "address"
        },
        {
          "name": "_value",
          "type": "uint256"
        },
        {
          "name": "_data",
          "type": "bytes"
        }
      ],
      "name": "transferFromAndCall",
      "outputs": [
        {
          "name": "",
          "type": "bool"
        }
      ],
      "payable": true,
      "stateMutability": "payable",
      "type": "function"
    },
    {
      "constant": false,
      "inputs": [
        {
          "name": "_spender",
          "type": "address"
        },
        {
          "name": "_value",
          "type": "uint256"
        },
        {
          "name": "_data",
          "type": "bytes"
        }
      ],
      "name": "approveAndCall",
      "outputs": [
        {
          "name": "",
          "type": "bool"
        }
      ],
      "payable": true,
      "stateMutability": "payable",
      "type": "function"
    },
    {
      "constant": false,
      "inputs": [
        {
          "name": "_spender",
          "type": "address"
        },
        {
          "name": "_subtractedValue",
          "type": "uint256"
        },
        {
          "name": "_data",
          "type": "bytes"
        }
      ],
      "name": "decreaseApprovalAndCall",
      "outputs": [
        {
          "name": "",
          "type": "bool"
        }
      ],
      "payable": true,
      "stateMutability": "payable",
      "type": "function"
    },
    {
      "constant": false,
      "inputs": [
        {
          "name": "_spender",
          "type": "address"
        },
        {
          "name": "_addedValue",
          "type": "uint256"
        }
      ],
      "name": "increaseApproval",
      "outputs": [
        {
          "name": "",
          "type": "bool"
        }
      ],
      "payable": false,
      "stateMutability": "nonpayable",
      "type": "function"
    },
    {
      "constant": true,
      "inputs": [
        {
          "name": "_owner",
          "type": "address"
        },
        {
          "name": "_spender",
          "type": "address"
        }
      ],
      "name": "allowance",
      "outputs": [
        {
          "name": "",
          "type": "uint256"
        }
      ],
      "payable": false,
      "stateMutability": "view",
      "type": "function"
    },
    {
      "anonymous": false,
      "inputs": [
        {
          "indexed": true,
          "name": "owner",
          "type": "address"
        },
        {
          "indexed": true,
          "name": "spender",
          "type": "address"
        },
        {
          "indexed": false,
          "name": "value",
          "type": "uint256"
        }
      ],
      "name": "Approval",
      "type": "event"
    },
    {
      "anonymous": false,
      "inputs": [
        {
          "indexed": true,
          "name": "from",
          "type": "address"
        },
        {
          "indexed": true,
          "name": "to",
          "type": "address"
        },
        {
          "indexed": false,
          "name": "value",
          "type": "uint256"
        }
      ],
      "name": "Transfer",
      "type": "event"
    }
  ],
  "bytecode": "0x608060405234801561001057600080fd5b50610a84806100206000396000f3006080604052600436106100c45763ffffffff7c0100000000000000000000000000000000000000000000000000000000600035041663095ea7b381146100c957806318160ddd1461010157806323b872dd146101285780634000aea01461015257806366188463146101ae57806370a08231146101d257806390db623f146101f3578063a9059cbb1461024f578063c1d34b8914610273578063cae9ca51146102d5578063cb3993be14610331578063d73dd6231461038d578063dd62ed3e146103b1575b600080fd5b3480156100d557600080fd5b506100ed600160a060020a03600435166024356103d8565b604080519115158252519081900360200190f35b34801561010d57600080fd5b5061011661043e565b60408051918252519081900360200190f35b34801561013457600080fd5b506100ed600160a060020a0360043581169060243516604435610444565b604080516020600460443581810135601f81018490048402850184019095528484526100ed948235600160a060020a03169460248035953695946064949201919081908401838280828437509497506105bb9650505050505050565b3480156101ba57600080fd5b506100ed600160a060020a036004351660243561066b565b3480156101de57600080fd5b50610116600160a060020a036004351661075b565b604080516020600460443581810135601f81018490048402850184019095528484526100ed948235600160a060020a03169460248035953695946064949201919081908401838280828437509497506107769650505050505050565b34801561025b57600080fd5b506100ed600160a060020a0360043516602435610798565b604080516020601f6064356004818101359283018490048402850184019095528184526100ed94600160a060020a0381358116956024803590921695604435953695608494019181908401838280828437509497506108799650505050505050565b604080516020600460443581810135601f81018490048402850184019095528484526100ed948235600160a060020a031694602480359536959460649492019190819084018382808284375094975061092b9650505050505050565b604080516020600460443581810135601f81018490048402850184019095528484526100ed948235600160a060020a031694602480359536959460649492019190819084018382808284375094975061094d9650505050505050565b34801561039957600080fd5b506100ed600160a060020a036004351660243561096f565b3480156103bd57600080fd5b50610116600160a060020a0360043581169060243516610a08565b336000818152600260209081526040808320600160a060020a038716808552908352818420869055815186815291519394909390927f8c5be1e5ebec7d5bd14f71427d1e84f3dd0314c0f7b2291e5b200ac8c7c3b925928290030190a350600192915050565b60015490565b6000600160a060020a038316151561045b57600080fd5b600160a060020a03841660009081526020819052604090205482111561048057600080fd5b600160a060020a03841660009081526002602090815260408083203384529091529020548211156104b057600080fd5b600160a060020a0384166000908152602081905260409020546104d9908363ffffffff610a3316565b600160a060020a03808616600090815260208190526040808220939093559085168152205461050e908363ffffffff610a4516565b600160a060020a03808516600090815260208181526040808320949094559187168152600282528281203382529091522054610550908363ffffffff610a3316565b600160a060020a03808616600081815260026020908152604080832033845282529182902094909455805186815290519287169391927fddf252ad1be2c89b69c2b068fc378daa952ba7f163c4a11628f55a4df523b3ef929181900390910190a35060019392505050565b6000600160a060020a0384163014156105d357600080fd5b6105dd8484610798565b5083600160a060020a0316348360405180828051906020019080838360005b838110156106145781810151838201526020016105fc565b50505050905090810190601f1680156106415780820380516001836020036101000a031916815260200191505b5091505060006040518083038185875af192505050151561066157600080fd5b5060019392505050565b336000908152600260209081526040808320600160a060020a0386168452909152812054808311156106c057336000908152600260209081526040808320600160a060020a03881684529091528120556106f5565b6106d0818463ffffffff610a3316565b336000908152600260209081526040808320600160a060020a03891684529091529020555b336000818152600260209081526040808320600160a060020a0389168085529083529281902054815190815290519293927f8c5be1e5ebec7d5bd14f71427d1e84f3dd0314c0f7b2291e5b200ac8c7c3b925929181900390910190a35060019392505050565b600160a060020a031660009081526020819052604090205490565b6000600160a060020a03841630141561078e57600080fd5b6105dd848461096f565b6000600160a060020a03831615156107af57600080fd5b336000908152602081905260409020548211156107cb57600080fd5b336000908152602081905260409020546107eb908363ffffffff610a3316565b3360009081526020819052604080822092909255600160a060020a0385168152205461081d908363ffffffff610a4516565b600160a060020a038416600081815260208181526040918290209390935580518581529051919233927fddf252ad1be2c89b69c2b068fc378daa952ba7f163c4a11628f55a4df523b3ef9281900390910190a350600192915050565b6000600160a060020a03841630141561089157600080fd5b61089c858585610444565b5083600160a060020a0316348360405180828051906020019080838360005b838110156108d35781810151838201526020016108bb565b50505050905090810190601f1680156109005780820380516001836020036101000a031916815260200191505b5091505060006040518083038185875af192505050151561092057600080fd5b506001949350505050565b6000600160a060020a03841630141561094357600080fd5b6105dd84846103d8565b6000600160a060020a03841630141561096557600080fd5b6105dd848461066b565b336000908152600260209081526040808320600160a060020a03861684529091528120546109a3908363ffffffff610a4516565b336000818152600260209081526040808320600160a060020a0389168085529083529281902085905580519485525191937f8c5be1e5ebec7d5bd14f71427d1e84f3dd0314c0f7b2291e5b200ac8c7c3b925929081900390910190a350600192915050565b600160a060020a03918216600090815260026020908152604080832093909416825291909152205490565b600082821115610a3f57fe5b50900390565b81810182811015610a5257fe5b929150505600a165627a7a72305820b72b659ca68096429fd6f2a3458e0166060aaf8626659f7d3f8164bc14b021dd0029",
  "source": "pragma solidity ^0.4.4;\n\nimport \"openzeppelin-solidity/contracts/token/ERC827/ERC827Token.sol\";\nimport \"./PepeBase.sol\";\n\ncontract PepeGrinder is ERC827Token {\n\n/*  address pepeContract;\n  uint256[] pepes;\n  mapping(address => bool) dusting;\n\n  string public name = \"CryptoPepes DUST\";\n  string public symbol = \"DPEP\";\n  uint8 public decimals = 18;\n\n  uint256 public constant dustPerPepe = 100 ether;\n\n  constructor(address _pepeContract) public {\n      pepeContract = _pepeContract;\n\n  }\n\n  function setDusting() {\n      dusting[msg.sender] = true;\n  }\n\n  function dustPepe(uint256 _pepeId, address _miner) {\n      require(msg.sender == _pepeContract);\n      balances[_miner] += dustPerPepe;\n      pepes.push(_pepeId);\n      totalSupply_ += dustPerPepe;\n      emit Transfer(address(0), _miner, dustPerPepe);\n  }\n\n  function claimPepe() {\n      require(balances[msg.sender] >= dustPerPepe);\n\n      balances[msg.sender] -= dustPerPepe;\n      totalSupply_ -= dustPerPepe;\n\n      PepeBase(_pepeContract).transfer(msg.sender, pepes[]);\n\n      emit Transfer(msg.sender, address(0), dustPerPepe);\n\n  }\n*/\n\n}\n",
  "sourcePath": "/Users/mickdegraaf/Documents/development/cryptopepe-smartcontracts/contracts/PepeGrinder.sol",
  "compiler": {
    "name": "solc",
    "version": "0.4.24+commit.e67f0147.Emscripten.clang"
  },
  "schemaVersion": "2.0.0",
  "updatedAt": "2018-05-28T16:01:54.032Z"
}