{
  "contractName": "PepeAuctionSale",
  "abi": [
    {
      "constant": true,
      "inputs": [],
      "name": "affiliateContract",
      "outputs": [
        {
          "name": "",
          "type": "address"
        }
      ],
      "payable": false,
      "stateMutability": "view",
      "type": "function"
    },
    {
      "constant": true,
      "inputs": [],
      "name": "pepeContract",
      "outputs": [
        {
          "name": "",
          "type": "address"
        }
      ],
      "payable": false,
      "stateMutability": "view",
      "type": "function"
    },
    {
      "constant": false,
      "inputs": [
        {
          "name": "_beneficiary",
          "type": "address"
        }
      ],
      "name": "setBeneficiary",
      "outputs": [],
      "payable": false,
      "stateMutability": "nonpayable",
      "type": "function"
    },
    {
      "constant": true,
      "inputs": [
        {
          "name": "_pepeId",
          "type": "uint256"
        }
      ],
      "name": "calculateBid",
      "outputs": [
        {
          "name": "",
          "type": "uint256"
        }
      ],
      "payable": false,
      "stateMutability": "view",
      "type": "function"
    },
    {
      "constant": true,
      "inputs": [],
      "name": "beneficiary",
      "outputs": [
        {
          "name": "",
          "type": "address"
        }
      ],
      "payable": false,
      "stateMutability": "view",
      "type": "function"
    },
    {
      "constant": true,
      "inputs": [
        {
          "name": "",
          "type": "uint256"
        }
      ],
      "name": "auctions",
      "outputs": [
        {
          "name": "seller",
          "type": "address"
        },
        {
          "name": "pepeId",
          "type": "uint256"
        },
        {
          "name": "auctionBegin",
          "type": "uint64"
        },
        {
          "name": "auctionEnd",
          "type": "uint64"
        },
        {
          "name": "beginPrice",
          "type": "uint256"
        },
        {
          "name": "endPrice",
          "type": "uint256"
        }
      ],
      "payable": false,
      "stateMutability": "view",
      "type": "function"
    },
    {
      "constant": false,
      "inputs": [
        {
          "name": "_fee",
          "type": "uint256"
        }
      ],
      "name": "changeFee",
      "outputs": [],
      "payable": false,
      "stateMutability": "nonpayable",
      "type": "function"
    },
    {
      "constant": false,
      "inputs": [
        {
          "name": "_pepeId",
          "type": "uint256"
        },
        {
          "name": "_beginPrice",
          "type": "uint256"
        },
        {
          "name": "_endPrice",
          "type": "uint256"
        },
        {
          "name": "_duration",
          "type": "uint64"
        }
      ],
      "name": "startAuction",
      "outputs": [],
      "payable": false,
      "stateMutability": "nonpayable",
      "type": "function"
    },
    {
      "constant": true,
      "inputs": [],
      "name": "owner",
      "outputs": [
        {
          "name": "",
          "type": "address"
        }
      ],
      "payable": false,
      "stateMutability": "view",
      "type": "function"
    },
    {
      "constant": false,
      "inputs": [
        {
          "name": "_pepeId",
          "type": "uint256"
        }
      ],
      "name": "savePepe",
      "outputs": [],
      "payable": false,
      "stateMutability": "nonpayable",
      "type": "function"
    },
    {
      "constant": false,
      "inputs": [
        {
          "name": "_pepeId",
          "type": "uint256"
        },
        {
          "name": "_beginPrice",
          "type": "uint256"
        },
        {
          "name": "_endPrice",
          "type": "uint256"
        },
        {
          "name": "_duration",
          "type": "uint64"
        },
        {
          "name": "_seller",
          "type": "address"
        }
      ],
      "name": "startAuctionDirect",
      "outputs": [],
      "payable": false,
      "stateMutability": "nonpayable",
      "type": "function"
    },
    {
      "constant": true,
      "inputs": [],
      "name": "fee",
      "outputs": [
        {
          "name": "",
          "type": "uint256"
        }
      ],
      "payable": false,
      "stateMutability": "view",
      "type": "function"
    },
    {
      "constant": false,
      "inputs": [
        {
          "name": "newOwner",
          "type": "address"
        }
      ],
      "name": "transferOwnership",
      "outputs": [],
      "payable": false,
      "stateMutability": "nonpayable",
      "type": "function"
    },
    {
      "inputs": [
        {
          "name": "_pepeContract",
          "type": "address"
        },
        {
          "name": "_affiliateContract",
          "type": "address"
        }
      ],
      "payable": false,
      "stateMutability": "nonpayable",
      "type": "constructor"
    },
    {
      "anonymous": false,
      "inputs": [
        {
          "indexed": true,
          "name": "pepe",
          "type": "uint256"
        },
        {
          "indexed": true,
          "name": "winner",
          "type": "address"
        },
        {
          "indexed": true,
          "name": "seller",
          "type": "address"
        }
      ],
      "name": "AuctionWon",
      "type": "event"
    },
    {
      "anonymous": false,
      "inputs": [
        {
          "indexed": true,
          "name": "pepe",
          "type": "uint256"
        },
        {
          "indexed": true,
          "name": "seller",
          "type": "address"
        }
      ],
      "name": "AuctionStarted",
      "type": "event"
    },
    {
      "anonymous": false,
      "inputs": [
        {
          "indexed": true,
          "name": "pepe",
          "type": "uint256"
        },
        {
          "indexed": true,
          "name": "seller",
          "type": "address"
        }
      ],
      "name": "AuctionFinalized",
      "type": "event"
    },
    {
      "anonymous": false,
      "inputs": [
        {
          "indexed": true,
          "name": "previousOwner",
          "type": "address"
        },
        {
          "indexed": true,
          "name": "newOwner",
          "type": "address"
        }
      ],
      "name": "OwnershipTransferred",
      "type": "event"
    },
    {
      "constant": false,
      "inputs": [
        {
          "name": "_pepeId",
          "type": "uint256"
        },
        {
          "name": "_affiliate",
          "type": "address"
        }
      ],
      "name": "buyPepe",
      "outputs": [],
      "payable": true,
      "stateMutability": "payable",
      "type": "function"
    },
    {
      "constant": false,
      "inputs": [
        {
          "name": "_pepeId",
          "type": "uint256"
        }
      ],
      "name": "buyPepe",
      "outputs": [],
      "payable": true,
      "stateMutability": "payable",
      "type": "function"
    }
  ],
  "bytecode": "0x608060405261927c60055534801561001657600080fd5b50604051604080610f948339810160405280516020909101516000805433600160a060020a0319918216811783556001805483169091179055600380548216600160a060020a039586161790556004805490911693909216929092179055610f1090819061008490396000f3006080604052600436106100da5763ffffffff7c01000000000000000000000000000000000000000000000000000000006000350416630117200581146100df5780631887a4d0146101105780631c31f710146101255780632d4a170a1461014857806338af3eed14610172578063571a26a0146101875780635aaafc97146101e95780636a1db1bf1461020057806374a25d43146102185780638da5cb5b14610243578063a8f5c67314610258578063b9a82f8014610270578063d024cd021461027b578063ddca3f43146102b2578063f2fde38b146102c7575b600080fd5b3480156100eb57600080fd5b506100f46102e8565b60408051600160a060020a039092168252519081900360200190f35b34801561011c57600080fd5b506100f46102f7565b34801561013157600080fd5b50610146600160a060020a0360043516610306565b005b34801561015457600080fd5b5061016060043561034c565b60408051918252519081900360200190f35b34801561017e57600080fd5b506100f46103f1565b34801561019357600080fd5b5061019f600435610400565b60408051600160a060020a039097168752602087019590955267ffffffffffffffff93841686860152919092166060850152608084019190915260a0830152519081900360c00190f35b610146600435600160a060020a0360243516610453565b34801561020c57600080fd5b506101466004356104e6565b34801561022457600080fd5b5061014660043560243560443567ffffffffffffffff60643516610510565b34801561024f57600080fd5b506100f4610710565b34801561026457600080fd5b5061014660043561071f565b6101466004356108a1565b34801561028757600080fd5b5061014660043560243560443567ffffffffffffffff60643516600160a060020a0360843516610c9e565b3480156102be57600080fd5b50610160610e15565b3480156102d357600080fd5b50610146600160a060020a0360043516610e1b565b600454600160a060020a031681565b600354600160a060020a031681565b600054600160a060020a0316331461031d57600080fd5b6001805473ffffffffffffffffffffffffffffffffffffffff1916600160a060020a0392909216919091179055565b600081815260026020819052604082209081015467ffffffffffffffff8082164290810392859283928392839268010000000000000000909104161161039857856004015496506103e6565b600386015460048701546002880154919003945067ffffffffffffffff8082166801000000000000000090920416039250828585028115156103d657fe5b0591508186600301540190508096505b505050505050919050565b600154600160a060020a031681565b600260208190526000918252604090912080546001820154928201546003830154600490930154600160a060020a03909216939267ffffffffffffffff8083169368010000000000000000909304169186565b60048054604080517f7352e4b80000000000000000000000000000000000000000000000000000000081523393810193909352600160a060020a0384811660248501529051911691637352e4b891604480830192600092919082900301818387803b1580156104c157600080fd5b505af11580156104d5573d6000803e3d6000fd5b505050506104e2826108a1565b5050565b600054600160a060020a031633146104fd57600080fd5b600554811061050b57600080fd5b600555565b610518610eaf565b600354604080517f23b872dd000000000000000000000000000000000000000000000000000000008152336004820152306024820152604481018890529051600160a060020a03909216916323b872dd916064808201926020929091908290030181600087803b15801561058b57600080fd5b505af115801561059f573d6000803e3d6000fd5b505050506040513d60208110156105b557600080fd5b505115156105c257600080fd5b6000858152600260208190526040909120015468010000000000000000900467ffffffffffffffff1642116105f657600080fd5b338152602081018590524267ffffffffffffffff8181166040840181905291840116606083018190521161062957600080fd5b6080810184815260a0820184815260008781526002602081815260408084208751815473ffffffffffffffffffffffffffffffffffffffff1916600160a060020a03909116178155918701516001830155808701519282018054606089015167ffffffffffffffff1990911667ffffffffffffffff958616176fffffffffffffffff000000000000000019166801000000000000000095909116949094029390931790925593516003850155915160049093019290925551339187917f16da476d7265fc95576888b93de4fa4849d6cea1228235887f569c6530ddfec19190a35050505050565b600054600160a060020a031681565b60008181526002602081905260409091200154426801000000000000000090910467ffffffffffffffff161061075457600080fd5b60035460008281526002602090815260408083205481517fa9059cbb000000000000000000000000000000000000000000000000000000008152600160a060020a03918216600482015260248101879052915194169363a9059cbb93604480840194938390030190829087803b1580156107cd57600080fd5b505af11580156107e1573d6000803e3d6000fd5b505050506040513d60208110156107f757600080fd5b5051151561080457600080fd5b600081815260026020526040808220549051600160a060020a039091169183917f95b73f79c6d7b09d4dd9a323589aec50a424621f53a70ece1cc21aa75554b5199190a360009081526002602081905260408220805473ffffffffffffffffffffffffffffffffffffffff191681556001810183905590810180546fffffffffffffffffffffffffffffffff191690556003810182905560040155565b6000818152600260208190526040822090810154909190819068010000000000000000900467ffffffffffffffff1642106108db57600080fd5b6108e48461034c565b9150348211156108f357600080fd5b600554620f42409083028454604051929091049250600160a060020a03169082840380156108fc02916000818181858888f1935050505015801561093b573d6000803e3d6000fd5b5060048054604080517f873abd75000000000000000000000000000000000000000000000000000000008152339381019390935251600092600160a060020a039092169163873abd7591602480830192602092919082900301818787803b1580156109a557600080fd5b505af11580156109b9573d6000803e3d6000fd5b505050506040513d60208110156109cf57600080fd5b5051600160a060020a031614610aee57600154604051600160a060020a03909116906002830480156108fc02916000818181858888f19350505050158015610a1b573d6000803e3d6000fd5b5060048054604080517f873abd75000000000000000000000000000000000000000000000000000000008152339381019390935251600160a060020a039091169163873abd759160248083019260209291908290030181600087803b158015610a8357600080fd5b505af1158015610a97573d6000803e3d6000fd5b505050506040513d6020811015610aad57600080fd5b5051604051600160a060020a03909116906002830480156108fc02916000818181858888f19350505050158015610ae8573d6000803e3d6000fd5b50610b2a565b600154604051600160a060020a039091169082156108fc029083906000818181858888f19350505050158015610b28573d6000803e3d6000fd5b505b600354604080517fa9059cbb000000000000000000000000000000000000000000000000000000008152336004820152602481018790529051600160a060020a039092169163a9059cbb916044808201926020929091908290030181600087803b158015610b9757600080fd5b505af1158015610bab573d6000803e3d6000fd5b505050506040513d6020811015610bc157600080fd5b50511515610bce57600080fd5b8254604051600160a060020a0390911690339086907f94ffdfa810a5f08da0ec8ea0f74619814453cfc101a90504a3a8f77e0eb6198690600090a481341115610c425760405133903484900380156108fc02916000818181858888f19350505050158015610c40573d6000803e3d6000fd5b505b50505060009081526002602081905260408220805473ffffffffffffffffffffffffffffffffffffffff191681556001810183905590810180546fffffffffffffffffffffffffffffffff191690556003810182905560040155565b610ca6610eaf565b600354600160a060020a03163314610cbd57600080fd5b6000868152600260208190526040909120015468010000000000000000900467ffffffffffffffff164211610cf157600080fd5b600160a060020a0382168152602081018690524267ffffffffffffffff81811660408401819052918501166060830181905211610d2d57600080fd5b6080810185815260a0820185815260008881526002602081815260408084208751815473ffffffffffffffffffffffffffffffffffffffff1916600160a060020a0391821617825592880151600182015581880151938101805460608a015167ffffffffffffffff1990911667ffffffffffffffff968716176fffffffffffffffff000000000000000019166801000000000000000096909116959095029490941790935594516003830155925160049091015591519084169188917f16da476d7265fc95576888b93de4fa4849d6cea1228235887f569c6530ddfec19190a3505050505050565b60055481565b600054600160a060020a03163314610e3257600080fd5b600160a060020a0381161515610e4757600080fd5b60008054604051600160a060020a03808516939216917f8be0079c531659141344cd1fd0a4f28419497f9722a3daafe3b4186f6b6457e091a36000805473ffffffffffffffffffffffffffffffffffffffff1916600160a060020a0392909216919091179055565b6040805160c081018252600080825260208201819052918101829052606081018290526080810182905260a0810191909152905600a165627a7a72305820fa6048e17f41cc92f705cf7021da2b82f31b24bcc04c39280a2b8adcd4aab6630029",
  "source": "pragma solidity ^0.4.19;\n\nimport \"./AuctionBase.sol\";\n\n//Most functionality is in the AuctionBase contract.\n//This contract is to buy pepes on the auction.\ncontract PepeAuctionSale is AuctionBase {\n\n  constructor(address _pepeContract, address _affiliateContract) AuctionBase(_pepeContract, _affiliateContract) public {\n\n  }\n\n  function buyPepe(uint256 _pepeId) payable public {\n      PepeAuction storage auction = auctions[_pepeId];\n      require(now < auction.auctionEnd);// auction must be still going\n\n      uint256 price = calculateBid(_pepeId);\n      require(msg.value >= price); //must send enough ether\n      uint256 totalFee = price * fee / feeDivider; //safe math needed?\n\n      //Send ETH to seller\n      auction.seller.transfer(price - totalFee);\n      //send ETH to beneficiary\n      if(affiliateContract.userToAffiliate(msg.sender) != address(0)) { //if user has affiliate\n          beneficiary.transfer(totalFee / 2);\n          affiliateContract.userToAffiliate(msg.sender).transfer(totalFee / 2);\n      }else{\n          beneficiary.transfer(totalFee);\n      }\n      //Send pepe to buyer\n      if(!pepeContract.transfer(msg.sender, _pepeId)) {\n        revert(); //can't complete transfer if this fails\n      }\n\n      emit AuctionWon(_pepeId, msg.sender, auction.seller);\n\n      if(msg.value > price) { //return ether send to much\n        msg.sender.transfer(msg.value - price);\n      }\n\n      delete auctions[_pepeId];//deletes auction\n  }\n\n  function buyPepe(uint256 _pepeId, address _affiliate) payable external {\n      affiliateContract.setAffiliate(msg.sender, _affiliate);\n      buyPepe(_pepeId);\n  }\n\n}\n",
  "sourcePath": "/Users/mickdegraaf/Documents/development/cryptopepe-smartcontracts/contracts/PepeAuctionSale.sol",
  "compiler": {
    "name": "solc",
    "version": "0.4.24+commit.e67f0147.Emscripten.clang"
  },
  "schemaVersion": "2.0.0",
  "updatedAt": "2018-05-28T15:54:40.144Z"
}