{
  "contractName": "PepeBase",
  "abi": [
    {
      "constant": true,
      "inputs": [],
      "name": "name",
      "outputs": [
        {
          "name": "",
          "type": "string"
        }
      ],
      "payable": false,
      "stateMutability": "view",
      "type": "function"
    },
    {
      "constant": true,
      "inputs": [
        {
          "name": "",
          "type": "address"
        },
        {
          "name": "",
          "type": "address"
        }
      ],
      "name": "approvedForAll",
      "outputs": [
        {
          "name": "",
          "type": "bool"
        }
      ],
      "payable": false,
      "stateMutability": "view",
      "type": "function"
    },
    {
      "constant": true,
      "inputs": [],
      "name": "pepToken",
      "outputs": [
        {
          "name": "",
          "type": "address"
        }
      ],
      "payable": false,
      "stateMutability": "view",
      "type": "function"
    },
    {
      "constant": true,
      "inputs": [],
      "name": "implementsERC721",
      "outputs": [
        {
          "name": "",
          "type": "bool"
        }
      ],
      "payable": false,
      "stateMutability": "view",
      "type": "function"
    },
    {
      "constant": true,
      "inputs": [],
      "name": "lastRewardEthBlockNumber",
      "outputs": [
        {
          "name": "",
          "type": "uint256"
        }
      ],
      "payable": false,
      "stateMutability": "view",
      "type": "function"
    },
    {
      "constant": true,
      "inputs": [
        {
          "name": "randomHash",
          "type": "uint256"
        }
      ],
      "name": "pickCrossovers",
      "outputs": [
        {
          "name": "",
          "type": "uint16[4]"
        },
        {
          "name": "",
          "type": "uint256"
        },
        {
          "name": "",
          "type": "uint8"
        }
      ],
      "payable": false,
      "stateMutability": "pure",
      "type": "function"
    },
    {
      "constant": true,
      "inputs": [],
      "name": "zeroGenPepes",
      "outputs": [
        {
          "name": "",
          "type": "uint256"
        }
      ],
      "payable": false,
      "stateMutability": "view",
      "type": "function"
    },
    {
      "constant": true,
      "inputs": [
        {
          "name": "",
          "type": "bytes32"
        }
      ],
      "name": "userToAddress",
      "outputs": [
        {
          "name": "",
          "type": "address"
        }
      ],
      "payable": false,
      "stateMutability": "view",
      "type": "function"
    },
    {
      "constant": true,
      "inputs": [],
      "name": "lastRewardTo",
      "outputs": [
        {
          "name": "",
          "type": "address"
        }
      ],
      "payable": false,
      "stateMutability": "view",
      "type": "function"
    },
    {
      "constant": false,
      "inputs": [
        {
          "name": "_username",
          "type": "bytes32"
        }
      ],
      "name": "claimUsername",
      "outputs": [],
      "payable": false,
      "stateMutability": "nonpayable",
      "type": "function"
    },
    {
      "constant": true,
      "inputs": [
        {
          "name": "",
          "type": "uint256"
        }
      ],
      "name": "approved",
      "outputs": [
        {
          "name": "",
          "type": "address"
        }
      ],
      "payable": false,
      "stateMutability": "view",
      "type": "function"
    },
    {
      "constant": true,
      "inputs": [],
      "name": "_MAXIMUM_TARGET",
      "outputs": [
        {
          "name": "",
          "type": "uint256"
        }
      ],
      "payable": false,
      "stateMutability": "view",
      "type": "function"
    },
    {
      "constant": true,
      "inputs": [],
      "name": "miningTarget",
      "outputs": [
        {
          "name": "",
          "type": "uint256"
        }
      ],
      "payable": false,
      "stateMutability": "view",
      "type": "function"
    },
    {
      "constant": true,
      "inputs": [],
      "name": "challengeNumber",
      "outputs": [
        {
          "name": "",
          "type": "bytes32"
        }
      ],
      "payable": false,
      "stateMutability": "view",
      "type": "function"
    },
    {
      "constant": true,
      "inputs": [],
      "name": "owner",
      "outputs": [
        {
          "name": "",
          "type": "address"
        }
      ],
      "payable": false,
      "stateMutability": "view",
      "type": "function"
    },
    {
      "constant": true,
      "inputs": [],
      "name": "symbol",
      "outputs": [
        {
          "name": "",
          "type": "string"
        }
      ],
      "payable": false,
      "stateMutability": "view",
      "type": "function"
    },
    {
      "constant": true,
      "inputs": [
        {
          "name": "mother",
          "type": "uint32[4][2][2]"
        },
        {
          "name": "father",
          "type": "uint32[4][2][2]"
        }
      ],
      "name": "breed",
      "outputs": [
        {
          "name": "",
          "type": "uint32[4][2][2]"
        }
      ],
      "payable": false,
      "stateMutability": "view",
      "type": "function"
    },
    {
      "constant": true,
      "inputs": [
        {
          "name": "seed",
          "type": "uint256"
        }
      ],
      "name": "randomDNA",
      "outputs": [
        {
          "name": "",
          "type": "uint32[4][2][2]"
        }
      ],
      "payable": false,
      "stateMutability": "pure",
      "type": "function"
    },
    {
      "constant": true,
      "inputs": [],
      "name": "_BLOCKS_PER_READJUSTMENT",
      "outputs": [
        {
          "name": "",
          "type": "uint256"
        }
      ],
      "payable": false,
      "stateMutability": "view",
      "type": "function"
    },
    {
      "constant": true,
      "inputs": [],
      "name": "halted",
      "outputs": [
        {
          "name": "",
          "type": "bool"
        }
      ],
      "payable": false,
      "stateMutability": "view",
      "type": "function"
    },
    {
      "constant": true,
      "inputs": [],
      "name": "lastRewardAmount",
      "outputs": [
        {
          "name": "",
          "type": "uint256"
        }
      ],
      "payable": false,
      "stateMutability": "view",
      "type": "function"
    },
    {
      "constant": false,
      "inputs": [],
      "name": "unhalt",
      "outputs": [],
      "payable": false,
      "stateMutability": "nonpayable",
      "type": "function"
    },
    {
      "constant": true,
      "inputs": [],
      "name": "latestDifficultyPeriodStarted",
      "outputs": [
        {
          "name": "",
          "type": "uint256"
        }
      ],
      "payable": false,
      "stateMutability": "view",
      "type": "function"
    },
    {
      "constant": true,
      "inputs": [
        {
          "name": "",
          "type": "uint256"
        }
      ],
      "name": "cozyCoolDowns",
      "outputs": [
        {
          "name": "",
          "type": "uint32"
        }
      ],
      "payable": false,
      "stateMutability": "view",
      "type": "function"
    },
    {
      "constant": true,
      "inputs": [],
      "name": "maxPremine",
      "outputs": [
        {
          "name": "",
          "type": "uint256"
        }
      ],
      "payable": false,
      "stateMutability": "view",
      "type": "function"
    },
    {
      "constant": true,
      "inputs": [],
      "name": "_MINIMUM_TARGET",
      "outputs": [
        {
          "name": "",
          "type": "uint256"
        }
      ],
      "payable": false,
      "stateMutability": "view",
      "type": "function"
    },
    {
      "constant": true,
      "inputs": [
        {
          "name": "",
          "type": "address"
        }
      ],
      "name": "addressToUser",
      "outputs": [
        {
          "name": "",
          "type": "bytes32"
        }
      ],
      "payable": false,
      "stateMutability": "view",
      "type": "function"
    },
    {
      "constant": true,
      "inputs": [],
      "name": "haltTime",
      "outputs": [
        {
          "name": "",
          "type": "uint256"
        }
      ],
      "payable": false,
      "stateMutability": "view",
      "type": "function"
    },
    {
      "constant": true,
      "inputs": [
        {
          "name": "a",
          "type": "uint32[4]"
        },
        {
          "name": "b",
          "type": "uint32[4]"
        },
        {
          "name": "locii",
          "type": "uint16[4]"
        },
        {
          "name": "crossoverCount",
          "type": "uint8"
        }
      ],
      "name": "crossovers",
      "outputs": [
        {
          "name": "",
          "type": "uint32[4]"
        }
      ],
      "payable": false,
      "stateMutability": "pure",
      "type": "function"
    },
    {
      "constant": false,
      "inputs": [
        {
          "name": "newOwner",
          "type": "address"
        }
      ],
      "name": "transferOwnership",
      "outputs": [],
      "payable": false,
      "stateMutability": "nonpayable",
      "type": "function"
    },
    {
      "constant": true,
      "inputs": [
        {
          "name": "",
          "type": "uint256"
        }
      ],
      "name": "pepes",
      "outputs": [
        {
          "name": "master",
          "type": "address"
        },
        {
          "name": "canCozyAgain",
          "type": "uint64"
        },
        {
          "name": "generation",
          "type": "uint64"
        },
        {
          "name": "father",
          "type": "uint256"
        },
        {
          "name": "mother",
          "type": "uint256"
        },
        {
          "name": "name",
          "type": "bytes32"
        },
        {
          "name": "birthTime",
          "type": "uint256"
        },
        {
          "name": "coolDownIndex",
          "type": "uint8"
        }
      ],
      "payable": false,
      "stateMutability": "view",
      "type": "function"
    },
    {
      "constant": false,
      "inputs": [
        {
          "name": "_duration",
          "type": "uint256"
        }
      ],
      "name": "halt",
      "outputs": [],
      "payable": false,
      "stateMutability": "nonpayable",
      "type": "function"
    },
    {
      "inputs": [
        {
          "name": "_pepeToken",
          "type": "address"
        }
      ],
      "payable": false,
      "stateMutability": "nonpayable",
      "type": "constructor"
    },
    {
      "anonymous": false,
      "inputs": [
        {
          "indexed": true,
          "name": "mother",
          "type": "uint256"
        },
        {
          "indexed": true,
          "name": "father",
          "type": "uint256"
        },
        {
          "indexed": true,
          "name": "pepeId",
          "type": "uint256"
        }
      ],
      "name": "PepeBorn",
      "type": "event"
    },
    {
      "anonymous": false,
      "inputs": [
        {
          "indexed": true,
          "name": "pepeId",
          "type": "uint256"
        }
      ],
      "name": "PepeNamed",
      "type": "event"
    },
    {
      "anonymous": false,
      "inputs": [
        {
          "indexed": true,
          "name": "from",
          "type": "address"
        },
        {
          "indexed": false,
          "name": "reward_amount",
          "type": "uint256"
        },
        {
          "indexed": false,
          "name": "epochCount",
          "type": "uint256"
        },
        {
          "indexed": false,
          "name": "newChallengeNumber",
          "type": "bytes32"
        }
      ],
      "name": "Mint",
      "type": "event"
    },
    {
      "anonymous": false,
      "inputs": [
        {
          "indexed": true,
          "name": "_owner",
          "type": "address"
        },
        {
          "indexed": true,
          "name": "_approved",
          "type": "address"
        },
        {
          "indexed": false,
          "name": "_tokenId",
          "type": "uint256"
        }
      ],
      "name": "Approval",
      "type": "event"
    },
    {
      "anonymous": false,
      "inputs": [
        {
          "indexed": true,
          "name": "_from",
          "type": "address"
        },
        {
          "indexed": true,
          "name": "_to",
          "type": "address"
        },
        {
          "indexed": true,
          "name": "_tokenId",
          "type": "uint256"
        }
      ],
      "name": "Transfer",
      "type": "event"
    },
    {
      "anonymous": false,
      "inputs": [
        {
          "indexed": true,
          "name": "_owner",
          "type": "address"
        },
        {
          "indexed": true,
          "name": "_operator",
          "type": "address"
        },
        {
          "indexed": false,
          "name": "_approved",
          "type": "bool"
        }
      ],
      "name": "ApprovalForAll",
      "type": "event"
    },
    {
      "anonymous": false,
      "inputs": [
        {
          "indexed": true,
          "name": "user",
          "type": "address"
        },
        {
          "indexed": true,
          "name": "username",
          "type": "bytes32"
        }
      ],
      "name": "UserNamed",
      "type": "event"
    },
    {
      "anonymous": false,
      "inputs": [
        {
          "indexed": true,
          "name": "previousOwner",
          "type": "address"
        },
        {
          "indexed": true,
          "name": "newOwner",
          "type": "address"
        }
      ],
      "name": "OwnershipTransferred",
      "type": "event"
    },
    {
      "constant": false,
      "inputs": [
        {
          "name": "_amount",
          "type": "uint256"
        }
      ],
      "name": "pepePremine",
      "outputs": [],
      "payable": false,
      "stateMutability": "nonpayable",
      "type": "function"
    },
    {
      "constant": false,
      "inputs": [
        {
          "name": "_mother",
          "type": "uint256"
        },
        {
          "name": "_father",
          "type": "uint256"
        },
        {
          "name": "_pepeReceiver",
          "type": "address"
        }
      ],
      "name": "cozyTime",
      "outputs": [
        {
          "name": "",
          "type": "bool"
        }
      ],
      "payable": false,
      "stateMutability": "nonpayable",
      "type": "function"
    },
    {
      "constant": false,
      "inputs": [
        {
          "name": "_pepeId",
          "type": "uint256"
        },
        {
          "name": "_name",
          "type": "bytes32"
        }
      ],
      "name": "setPepeName",
      "outputs": [
        {
          "name": "",
          "type": "bool"
        }
      ],
      "payable": false,
      "stateMutability": "nonpayable",
      "type": "function"
    },
    {
      "constant": false,
      "inputs": [
        {
          "name": "_pepeId",
          "type": "uint256"
        },
        {
          "name": "_auction",
          "type": "address"
        },
        {
          "name": "_beginPrice",
          "type": "uint256"
        },
        {
          "name": "_endPrice",
          "type": "uint256"
        },
        {
          "name": "_duration",
          "type": "uint64"
        }
      ],
      "name": "transferAndAuction",
      "outputs": [],
      "payable": false,
      "stateMutability": "nonpayable",
      "type": "function"
    },
    {
      "constant": false,
      "inputs": [
        {
          "name": "_pepeId",
          "type": "uint256"
        },
        {
          "name": "_auction",
          "type": "address"
        },
        {
          "name": "_cozyCandidate",
          "type": "uint256"
        },
        {
          "name": "_candidateAsFather",
          "type": "bool"
        }
      ],
      "name": "approveAndBuy",
      "outputs": [],
      "payable": true,
      "stateMutability": "payable",
      "type": "function"
    },
    {
      "constant": false,
      "inputs": [
        {
          "name": "_pepeId",
          "type": "uint256"
        },
        {
          "name": "_auction",
          "type": "address"
        },
        {
          "name": "_cozyCandidate",
          "type": "uint256"
        },
        {
          "name": "_candidateAsFather",
          "type": "bool"
        },
        {
          "name": "_affiliate",
          "type": "address"
        }
      ],
      "name": "approveAndBuyAffiliated",
      "outputs": [],
      "payable": true,
      "stateMutability": "payable",
      "type": "function"
    },
    {
      "constant": true,
      "inputs": [
        {
          "name": "_pepeId",
          "type": "uint256"
        }
      ],
      "name": "getPepe",
      "outputs": [
        {
          "name": "master",
          "type": "address"
        },
        {
          "name": "genotype",
          "type": "uint32[4][2][2]"
        },
        {
          "name": "canCozyAgain",
          "type": "uint64"
        },
        {
          "name": "generation",
          "type": "uint64"
        },
        {
          "name": "father",
          "type": "uint256"
        },
        {
          "name": "mother",
          "type": "uint256"
        },
        {
          "name": "pepeName",
          "type": "bytes32"
        },
        {
          "name": "birthTime",
          "type": "uint256"
        },
        {
          "name": "coolDownIndex",
          "type": "uint8"
        }
      ],
      "payable": false,
      "stateMutability": "view",
      "type": "function"
    },
    {
      "constant": true,
      "inputs": [
        {
          "name": "_pepeId",
          "type": "uint256"
        }
      ],
      "name": "getCozyAgain",
      "outputs": [
        {
          "name": "",
          "type": "uint64"
        }
      ],
      "payable": false,
      "stateMutability": "view",
      "type": "function"
    },
    {
      "constant": false,
      "inputs": [
        {
          "name": "nonce",
          "type": "uint256"
        },
        {
          "name": "challenge_digest",
          "type": "bytes32"
        }
      ],
      "name": "mint",
      "outputs": [
        {
          "name": "success",
          "type": "bool"
        }
      ],
      "payable": false,
      "stateMutability": "nonpayable",
      "type": "function"
    },
    {
      "constant": true,
      "inputs": [],
      "name": "getChallengeNumber",
      "outputs": [
        {
          "name": "",
          "type": "bytes32"
        }
      ],
      "payable": false,
      "stateMutability": "view",
      "type": "function"
    },
    {
      "constant": true,
      "inputs": [],
      "name": "getMiningDifficulty",
      "outputs": [
        {
          "name": "",
          "type": "uint256"
        }
      ],
      "payable": false,
      "stateMutability": "view",
      "type": "function"
    },
    {
      "constant": true,
      "inputs": [],
      "name": "getMiningReward",
      "outputs": [
        {
          "name": "",
          "type": "uint256"
        }
      ],
      "payable": false,
      "stateMutability": "pure",
      "type": "function"
    },
    {
      "constant": true,
      "inputs": [
        {
          "name": "nonce",
          "type": "uint256"
        },
        {
          "name": "challenge_digest",
          "type": "bytes32"
        },
        {
          "name": "challenge_number",
          "type": "bytes32"
        }
      ],
      "name": "getMintDigest",
      "outputs": [
        {
          "name": "digesttest",
          "type": "bytes32"
        }
      ],
      "payable": false,
      "stateMutability": "view",
      "type": "function"
    },
    {
      "constant": true,
      "inputs": [
        {
          "name": "nonce",
          "type": "uint256"
        },
        {
          "name": "challenge_digest",
          "type": "bytes32"
        },
        {
          "name": "challenge_number",
          "type": "bytes32"
        },
        {
          "name": "testTarget",
          "type": "uint256"
        }
      ],
      "name": "checkMintSolution",
      "outputs": [
        {
          "name": "success",
          "type": "bool"
        }
      ],
      "payable": false,
      "stateMutability": "view",
      "type": "function"
    },
    {
      "constant": true,
      "inputs": [],
      "name": "getMiningTarget",
      "outputs": [
        {
          "name": "",
          "type": "uint256"
        }
      ],
      "payable": false,
      "stateMutability": "view",
      "type": "function"
    },
    {
      "constant": true,
      "inputs": [],
      "name": "totalSupply",
      "outputs": [
        {
          "name": "total",
          "type": "uint256"
        }
      ],
      "payable": false,
      "stateMutability": "view",
      "type": "function"
    },
    {
      "constant": true,
      "inputs": [
        {
          "name": "_owner",
          "type": "address"
        }
      ],
      "name": "balanceOf",
      "outputs": [
        {
          "name": "balance",
          "type": "uint256"
        }
      ],
      "payable": false,
      "stateMutability": "view",
      "type": "function"
    },
    {
      "constant": true,
      "inputs": [
        {
          "name": "_tokenId",
          "type": "uint256"
        }
      ],
      "name": "ownerOf",
      "outputs": [
        {
          "name": "owner",
          "type": "address"
        }
      ],
      "payable": false,
      "stateMutability": "view",
      "type": "function"
    },
    {
      "constant": true,
      "inputs": [
        {
          "name": "_owner",
          "type": "address"
        },
        {
          "name": "_index",
          "type": "uint256"
        }
      ],
      "name": "tokenOfOwnerByIndex",
      "outputs": [
        {
          "name": "tokenId",
          "type": "uint256"
        }
      ],
      "payable": false,
      "stateMutability": "view",
      "type": "function"
    },
    {
      "constant": false,
      "inputs": [
        {
          "name": "_to",
          "type": "address"
        },
        {
          "name": "_tokenId",
          "type": "uint256"
        }
      ],
      "name": "transfer",
      "outputs": [
        {
          "name": "",
          "type": "bool"
        }
      ],
      "payable": false,
      "stateMutability": "nonpayable",
      "type": "function"
    },
    {
      "constant": false,
      "inputs": [
        {
          "name": "_to",
          "type": "address"
        },
        {
          "name": "_tokenId",
          "type": "uint256"
        }
      ],
      "name": "approve",
      "outputs": [],
      "payable": true,
      "stateMutability": "payable",
      "type": "function"
    },
    {
      "constant": false,
      "inputs": [
        {
          "name": "_operator",
          "type": "address"
        },
        {
          "name": "_approved",
          "type": "bool"
        }
      ],
      "name": "setApprovalForAll",
      "outputs": [],
      "payable": false,
      "stateMutability": "nonpayable",
      "type": "function"
    },
    {
      "constant": true,
      "inputs": [
        {
          "name": "_tokenId",
          "type": "uint256"
        }
      ],
      "name": "getApproved",
      "outputs": [
        {
          "name": "",
          "type": "address"
        }
      ],
      "payable": false,
      "stateMutability": "view",
      "type": "function"
    },
    {
      "constant": true,
      "inputs": [
        {
          "name": "_owner",
          "type": "address"
        },
        {
          "name": "_operator",
          "type": "address"
        }
      ],
      "name": "isApprovedForAll",
      "outputs": [
        {
          "name": "",
          "type": "bool"
        }
      ],
      "payable": false,
      "stateMutability": "view",
      "type": "function"
    },
    {
      "constant": true,
      "inputs": [
        {
          "name": "interfaceID",
          "type": "bytes4"
        }
      ],
      "name": "supportsInterface",
      "outputs": [
        {
          "name": "",
          "type": "bool"
        }
      ],
      "payable": false,
      "stateMutability": "view",
      "type": "function"
    },
    {
      "constant": false,
      "inputs": [
        {
          "name": "_from",
          "type": "address"
        },
        {
          "name": "_to",
          "type": "address"
        },
        {
          "name": "_tokenId",
          "type": "uint256"
        },
        {
          "name": "_data",
          "type": "bytes"
        }
      ],
      "name": "safeTransferFrom",
      "outputs": [],
      "payable": true,
      "stateMutability": "payable",
      "type": "function"
    },
    {
      "constant": false,
      "inputs": [
        {
          "name": "_from",
          "type": "address"
        },
        {
          "name": "_to",
          "type": "address"
        },
        {
          "name": "_tokenId",
          "type": "uint256"
        }
      ],
      "name": "safeTransferFrom",
      "outputs": [],
      "payable": true,
      "stateMutability": "payable",
      "type": "function"
    },
    {
      "constant": false,
      "inputs": [
        {
          "name": "_from",
          "type": "address"
        },
        {
          "name": "_to",
          "type": "address"
        },
        {
          "name": "_tokenId",
          "type": "uint256"
        }
      ],
      "name": "transferFrom",
      "outputs": [
        {
          "name": "",
          "type": "bool"
        }
      ],
      "payable": false,
      "stateMutability": "nonpayable",
      "type": "function"
    }
  ],
  "bytecode": "0x62127500600555610260604052603c6080908152607860a05261012c60c05261038460e05261070861010052610a8c61012052610e1061014052611c2061016052613840610180526170806101a05261e1006101c052620151806101e0526202a30061020052620546006102205262093a80610240526200008590600690600f6200011f565b506009805460ff19166001179055601e600c5562010000600d557d040000000000000000000000000000000000000000000000000000000000600e556000601255348015620000d357600080fd5b5060405160208062003e0583398101604052516000805433600160a060020a031991821617909155600e54600f55600b8054909116600160a060020a03909216919091179055620001e9565b600283019183908215620001b05791602002820160005b838211156200017c57835183826101000a81548163ffffffff021916908363ffffffff160217905550926020019260040160208160030104928301926001030262000136565b8015620001ae5782816101000a81549063ffffffff02191690556004016020816003010492830192600103026200017c565b505b50620001be929150620001c2565b5090565b620001e691905b80821115620001be57805463ffffffff19168155600101620001c9565b90565b613c0c80620001f96000396000f3006080604052600436106102c95763ffffffff7c010000000000000000000000000000000000000000000000000000000060003504166301ffc9a781146102ce57806306fdde0314610319578063081812fc146103a3578063095ea7b3146103d75780630b1714fd146103f05780630e16cd12146104175780631051db341461042c578063163aa00d1461044157806317da485f146104685780631801fbe51461047d57806318160ddd1461049857806318b95fb6146104ad5780631977bd681461050c57806321a7643014610524578063228dff131461053957806323b872dd146105545780632e1a9ffe1461057e5780632f745c591461066157806332e997081461068557806342842e0e1461069a578063490203a7146106b75780634ef37628146106cc57806362bc63c4146106e15780636352211e146107165780636c88beeb1461072e5780636fd396d61461074657806370a082311461075b57806371e68cad1461077c5780637d4061e61461079457806381269a56146107ac57806382cf2116146107cd57806387a2a9d6146108045780638a769d35146108195780638ae0368b1461082e5780638da5cb5b1461084357806395d89b41146108585780639716cad81461086d57806397566aa014610a205780639b2843e214610a3e5780639d18e40514610ac3578063a22cb46514610aea578063a9059cbb14610b10578063b5ade81b14610b34578063b88d4fde14610b49578063b9b8af0b14610b75578063bafedcaa14610b8a578063c29338cf14610b9f578063cb3e64fd14610bc6578063cb9ae70714610bdb578063d346658b14610bf0578063db34b9fa14610c21578063dc6e9cf914610c36578063e23a778514610c4b578063e985e9c514610c6a578063edf5388614610c91578063ee66875a14610cb2578063eede4c1614610cc7578063f2fde38b14610d92578063fb139a2114610db3578063fb1fad5014610e25575b600080fd5b3480156102da57600080fd5b506103057bffffffffffffffffffffffffffffffffffffffffffffffffffffffff1960043516610e3d565b604080519115158252519081900360200190f35b34801561032557600080fd5b5061032e610ee0565b6040805160208082528351818301528351919283929083019185019080838360005b83811015610368578181015183820152602001610350565b50505050905090810190601f1680156103955780820380516001836020036101000a031916815260200191505b509250505060405180910390f35b3480156103af57600080fd5b506103bb600435610f17565b60408051600160a060020a039092168252519081900360200190f35b6103ee600160a060020a0360043516602435610f32565b005b3480156103fc57600080fd5b50610305600160a060020a0360043581169060243516611060565b34801561042357600080fd5b506103bb611080565b34801561043857600080fd5b5061030561108f565b34801561044d57600080fd5b50610456611098565b60408051918252519081900360200190f35b34801561047457600080fd5b5061045661109e565b34801561048957600080fd5b506103056004356024356110bd565b3480156104a457600080fd5b50610456611353565b3480156104b957600080fd5b506104c5600435611385565b6040518084608080838360005b838110156104ea5781810151838201526020016104d2565b5050505091909101938452505060ff1660208201526040805191829003019150f35b34801561051857600080fd5b506103ee600435611418565b34801561053057600080fd5b5061045661152f565b34801561054557600080fd5b50610305600435602435611535565b34801561056057600080fd5b50610305600160a060020a0360043581169060243516604435611602565b34801561058a57600080fd5b50610596600435611727565b604051600160a060020a038a1681526000896002602084015b81841015610612578284602002015160026000925b818410156106045760208402830151608080838360005b838110156105f35781810151838201526020016105db565b5050505090500192600101926105c4565b9250505092600101926105af565b67ffffffffffffffff9b8c16815299909a1660208a01525050506040808701959095526060860193909352608085019190915260a084015260ff1660c0830152519081900360e0019350915050f35b34801561066d57600080fd5b50610456600160a060020a036004351660243561189e565b34801561069157600080fd5b506104566118fa565b6103ee600160a060020a0360043581169060243516604435611900565b3480156106c357600080fd5b50610456611921565b3480156106d857600080fd5b5061045661192e565b3480156106ed57600080fd5b506106f9600435611934565b6040805167ffffffffffffffff9092168252519081900360200190f35b34801561072257600080fd5b506103bb600435611969565b34801561073a57600080fd5b506103bb60043561199a565b34801561075257600080fd5b506103bb6119b5565b34801561076757600080fd5b50610456600160a060020a03600435166119c4565b34801561078857600080fd5b506103ee6004356119df565b3480156107a057600080fd5b506103bb600435611ab5565b3480156107b857600080fd5b50610305600435602435604435606435611ad0565b3480156107d957600080fd5b506103ee600435600160a060020a036024351660443560643567ffffffffffffffff60843516611b84565b34801561081057600080fd5b50610456611c81565b34801561082557600080fd5b50610456611c87565b34801561083a57600080fd5b50610456611c8d565b34801561084f57600080fd5b506103bb611c93565b34801561086457600080fd5b5061032e611ca2565b34801561087957600080fd5b50604080518082019091526109a3903690600490610204908260026000835b8282101561090657604080518082019091526101008302850160026000835b828210156108f35760408051608081810190925290808402860190600490839083908082843750505091835250506001909101906020016108b7565b5050505081526020019060010190610898565b505060408051808201909152929594936102008101939250905060026000835b8282101561099457604080518082019091526101008302850160026000835b82821015610981576040805160808181019092529080840286019060049083908390808284375050509183525050600190910190602001610945565b5050505081526020019060010190610926565b50929550611cd9945050505050565b6040516000826002835b81841015610a10578284602002015160026000925b81841015610a025760208402830151608080838360005b838110156109f15781810151838201526020016109d9565b5050505090500192600101926109c2565b9250505092600101926109ad565b9250505091505060405180910390f35b348015610a2c57600080fd5b50610456600435602435604435612020565b348015610a4a57600080fd5b50610a566004356120c2565b6040516000826002835b81841015610a10578284602002015160026000925b81841015610ab55760208402830151608080838360005b83811015610aa4578181015183820152602001610a8c565b505050509050019260010192610a75565b925050509260010192610a60565b6103ee600435600160a060020a03602435811690604435906064351515906084351661226f565b348015610af657600080fd5b506103ee600160a060020a03600435166024351515612360565b348015610b1c57600080fd5b50610305600160a060020a036004351660243561240b565b348015610b4057600080fd5b50610456612469565b6103ee600160a060020a036004803582169160248035909116916044359160643590810191013561246f565b348015610b8157600080fd5b506103056124b2565b348015610b9657600080fd5b506104566124bb565b348015610bab57600080fd5b50610305600435602435600160a060020a03604435166124c1565b348015610bd257600080fd5b506103ee6129e4565b348015610be757600080fd5b50610456612a19565b348015610bfc57600080fd5b50610c08600435612a1f565b6040805163ffffffff9092168252519081900360200190f35b348015610c2d57600080fd5b50610456612a4c565b348015610c4257600080fd5b50610456612a51565b6103ee600435600160a060020a03602435166044356064351515612a57565b348015610c7657600080fd5b50610305600160a060020a0360043581169060243516612b5e565b348015610c9d57600080fd5b50610456600160a060020a0360043516612b8c565b348015610cbe57600080fd5b50610456612b9e565b348015610cd357600080fd5b50604080516080818101909252610d5a9136916004916084919083908190839082908082843750506040805160808181019092529497969581810195945092506004915083908390808284375050604080516080818101909252949796958181019594509250600491508390839080828437509396505050913560ff169250612ba4915050565b6040518082608080838360005b83811015610d7f578181015183820152602001610d67565b5050505090500191505060405180910390f35b348015610d9e57600080fd5b506103ee600160a060020a0360043516612e41565b348015610dbf57600080fd5b50610dcb600435612ed5565b60408051600160a060020a03909916895267ffffffffffffffff97881660208a015295909616878601526060870193909352608086019190915260a085015260c084015260ff90911660e083015251908190036101000190f35b348015610e3157600080fd5b506103ee600435612f4a565b60007f80ac58cd000000000000000000000000000000000000000000000000000000007bffffffffffffffffffffffffffffffffffffffffffffffffffffffff1983161480610eca57507f01ffc9a7000000000000000000000000000000000000000000000000000000007bffffffffffffffffffffffffffffffffffffffffffffffffffffffff198316145b15610ed757506001610edb565b5060005b919050565b60408051808201909152600b81527f43727970746f2050657065000000000000000000000000000000000000000000602082015281565b600090815260196020526040902054600160a060020a031690565b60045460ff1615610f4257600080fd5b80600881815481101515610f5257fe5b60009182526020909120600b9091020154600160a060020a0316331480610f8f5750600081815260196020526040902054600160a060020a031633145b80610fe15750601a6000600883815481101515610fa857fe5b60009182526020808320600b90920290910154600160a060020a03168352828101939093526040918201812033825290925290205460ff165b1515610fec57600080fd5b600082815260196020908152604091829020805473ffffffffffffffffffffffffffffffffffffffff1916600160a060020a03871690811790915582518581529251909233927f8c5be1e5ebec7d5bd14f71427d1e84f3dd0314c0f7b2291e5b200ac8c7c3b92592918290030190a3505050565b601a60209081526000928352604080842090915290825290205460ff1681565b600b54600160a060020a031681565b60095460ff1681565b60155481565b60006110b7600f54600e54612f8490919063ffffffff16565b90505b90565b60045460009081908190819060ff16156110d657600080fd5b601254613e80116110e657600080fd5b601054604080516020808201939093526c0100000000000000000000000033028183015260548082018a905282518083039091018152607490910191829052805190928291908401908083835b602083106111525780518252601f199092019160209182019101611133565b5181516020939093036101000a6000190180199091169216919091179052604051920182900390912095505050858414905061118d57600080fd5b600f5483111561119c57600080fd5b6010546000908152601160205260409020805490849055915081156111c057600080fd5b6111c8611921565b601254909150600f1615156111f0576111ee6111e3876120c2565b600080600033612f99565b505b601280546001019055600b54600160a060020a031663a9059cbb33611213611921565b6040518363ffffffff167c01000000000000000000000000000000000000000000000000000000000281526004018083600160a060020a0316600160a060020a0316815260200182815260200192505050602060405180830381600087803b15801561127e57600080fd5b505af1158015611292573d6000803e3d6000fd5b505050506040513d60208110156112a857600080fd5b50506013805473ffffffffffffffffffffffffffffffffffffffff19163317905560148190554360158190556000190140601055600c546012548115156112eb57fe5b0615156112fa576112fa6131f5565b337fcf6fbb9dcea7d07263ab4f5c3a92f53af33dffc421d9d121e1c74b307e68189d611324611921565b60125460105460408051938452602084019290925282820152519081900360600190a250600195945050505050565b6000805260186020527f999d26de3473317ead3eeaf34ca78057f1439db67b6953469c3c96ce9caf6bd7546008540390565b61138d61392c565b60008061139861392c565b600080805b608061ffff8316101561140b57608080890498605f166001818101955093019092019161ffff8316106113cf5761140b565b818460ff8316600481106113df57fe5b61ffff909216602092909202015260018101906004600290910160ff16106114065761140b565b61139d565b9297929550919350505050565b60008054600160a060020a0316331461143057600080fd5b5060005b8181101561152b57600a5460641161144b57600080fd5b60085415156114fc576114f66114eb42611463611353565b60405160200180838152602001828152602001925050506040516020818303038152906040526040518082805190602001908083835b602083106114b85780518252601f199092019160209182019101611499565b5181516020939093036101000a6000190180199091169216919091179052604051920182900390912092506120c2915050565b600080600080612f99565b50611523565b61152161150b42611463611353565b6000805481908190600160a060020a0316612f99565b505b600101611434565b5050565b600a5481565b60045460009060ff161561154857600080fd5b60088054849133918390811061155a57fe5b60009182526020909120600b9091020154600160a060020a03161461157e57600080fd5b600880548590811061158c57fe5b600091825260209091206008600b909202010154156115aa57600080fd5b826008858154811015156115ba57fe5b6000918252602082206008600b90920201019190915560405185917f5a8858069902ead8e61944d06d7de6818a0dd09b668447431ac1501baa5e8ef891a25060019392505050565b60045460009060ff161561161557600080fd5b8160088181548110151561162557fe5b60009182526020909120600b9091020154600160a060020a03163314806116625750600081815260196020526040902054600160a060020a031633145b806116b45750601a600060088381548110151561167b57fe5b60009182526020808320600b90920290910154600160a060020a03168352828101939093526040918201812033825290925290205460ff165b15156116bf57600080fd5b84600160a060020a03166008848154811015156116d857fe5b60009182526020909120600b9091020154600160a060020a0316146116fc57600080fd5b600160a060020a038416151561171157600080fd5b61171c85858561332f565b506001949350505050565b600061173161394b565b60008060008060008060008060088b81548110151561174c57fe5b600091825260208220600b90910201805460408051808201909152600160a060020a039091169c50909250906001830190600290835b82821015611824576040805180820190915260028084028601906000835b82821015611811576040805160808101918290529085840190600490826000855b82829054906101000a900463ffffffff1663ffffffff16815260200190600401906020826003010492830192600103820291508084116117c15790505050505050815260200190600101906117a0565b5050505081526020019060010190611782565b5050505098508060050160009054906101000a900467ffffffffffffffff1697508060050160089054906101000a900467ffffffffffffffff1696508060060154955080600701549450806008015493508060090154925080600a0160009054906101000a900460ff169150509193959799909294969850565b600160a060020a03821660009081526018602052604081205482106118c257600080fd5b600160a060020a03831660009081526017602052604090208054839081106118e657fe5b906000526020600020015490505b92915050565b600f5490565b61191c83838360206040519081016040528060008152506133e7565b505050565b68878678326eac90000090565b60105490565b600060088281548110151561194557fe5b60009182526020909120600b909102016005015467ffffffffffffffff1692915050565b600060088281548110151561197a57fe5b60009182526020909120600b9091020154600160a060020a031692915050565b600260205260009081526040902054600160a060020a031681565b601354600160a060020a031681565b600160a060020a031660009081526018602052604090205490565b600081815260026020526040902054600160a060020a031615611a0157600080fd5b3360009081526001602052604090205415611a4e5733600090815260016020908152604080832054835260029091529020805473ffffffffffffffffffffffffffffffffffffffff191690555b3360008181526001602090815260408083208590558483526002909152808220805473ffffffffffffffffffffffffffffffffffffffff191684179055518392917f43c1ac38b68f3a24742fba8f0826c9fcf340d41f123872fa3175164d117e25af91a350565b601960205260009081526040902054600160a060020a031681565b6040805160208082018590526c010000000000000000000000003302828401526054808301889052835180840390910181526074909201928390528151600093849392909182918401908083835b60208310611b3d5780518252601f199092019160209182019101611b1e565b5181516020939093036101000a60001901801990911692169190911790526040519201829003909120935050505082811115611b7857600080fd5b93909314949350505050565b60045460009060ff1615611b9757600080fd5b600880548791339183908110611ba957fe5b60009182526020909120600b9091020154600160a060020a031614611bcd57600080fd5b611bd833878961332f565b604080517fd024cd0200000000000000000000000000000000000000000000000000000000815260048101899052602481018790526044810186905267ffffffffffffffff851660648201523360848201529051879350600160a060020a0384169163d024cd029160a480830192600092919082900301818387803b158015611c6057600080fd5b505af1158015611c74573d6000803e3d6000fd5b5050505050505050505050565b600e5481565b600f5481565b60105481565b600054600160a060020a031681565b60408051808201909152600481527f4350455000000000000000000000000000000000000000000000000000000000602082015281565b611ce161394b565b611ce961394b565b6000806000611cf661392c565b60008060008060008098505b600263ffffffff8a16101561200f5760408051426020808301919091527c010000000000000000000000000000000000000000000000000000000063ffffffff8d160282840152825160248184030181526044909201928390528151600293918291908401908083835b60208310611d8b5780518252601f199092019160209182019101611d6c565b51815160209384036101000a600019018019909216911617905260405191909301945091925050808303816000865af1158015611dcc573d6000803e3d6000fd5b5050506040513d6020811015611de157600080fd5b50516002810498506001169650611df788611385565b60028083049b509298509096509450600186169350611e6c908e9085908110611e1c57fe5b602002015163ffffffff8b1660028110611e3257fe5b60200201518e60ff60018790031660028110611e4a57fe5b602002015163ffffffff8c1660028110611e6057fe5b60200201518887612ba4565b8a60ff891660028110611e7b57fe5b602002015163ffffffff8b1660028110611e9157fe5b6020020152611e9f88611385565b60028083049b509298509096509450600186169350611ef2908d9085908110611ec457fe5b602002015163ffffffff8b1660028110611eda57fe5b60200201518d60ff60018790031660028110611e4a57fe5b8a60ff60018a90031660028110611f0557fe5b602002015163ffffffff8b1660028110611f1b57fe5b6020020152600091505b600460ff83161015612004575060005b600560ff8216108015611f4b5750876001166001145b15611ff957600297889004888104986001909116975060078916810a908b9089908110611f7457fe5b602002015163ffffffff8b1660028110611f8a57fe5b602002015160ff841660048110611f9d57fe5b6020020151188a60ff891660028110611fb257fe5b602002015163ffffffff8b1660028110611fc857fe5b602002015160ff841660048110611fdb57fe5b63ffffffff9092166020929092020152600890970496600101611f35565b600190910190611f25565b600190980197611d02565b50979b9a5050505050505050505050565b6040805160208082018490526c010000000000000000000000003302828401526054808301879052835180840390910181526074909201928390528151600093849392909182918401908083835b6020831061208d5780518252601f19909201916020918201910161206e565b5181516020939093036101000a6000190180199091169216919091179052604051920182900390912098975050505050505050565b6120ca61394b565b6120d261394b565b600080805b600263ffffffff84161015612265576040805160208082018990527c010000000000000000000000000000000000000000000000000000000063ffffffff87160282840152825160248184030181526044909201928390528151600293918291908401908083835b6020831061215e5780518252601f19909201916020918201910161213f565b51815160209384036101000a600019018019909216911617905260405191909301945091925050808303816000865af115801561219f573d6000803e3d6000fd5b5050506040513d60208110156121b457600080fd5b50519150600090505b600460ff8216101561225a578351829063ffffffff8516600281106121de57fe5b602002015160ff8316600481106121f157fe5b63ffffffff90921660209290920201526401000000009091049081846001602002015163ffffffff85166002811061222557fe5b602002015160ff83166004811061223857fe5b63ffffffff9092166020929092020152640100000000909104906001016121bd565b6001909201916120d7565b5091949350505050565b60045460ff161561227f57600080fd5b60088054849133918390811061229157fe5b60009182526020909120600b9091020154600160a060020a0316146122b557600080fd5b600084815260196020526040808220805473ffffffffffffffffffffffffffffffffffffffff1916600160a060020a0389811691821790925582517fa6da467c000000000000000000000000000000000000000000000000000000008152600481018b905260248101899052871515604482015233606482015291861660848301529151919263a6da467c92349260a480820193929182900301818588803b158015611c6057600080fd5b801561239957336000908152601a60209081526040808320600160a060020a03861684529091529020805460ff191660011790556123c5565b336000908152601a60209081526040808320600160a060020a03861684529091529020805460ff191690555b6040805182151581529051600160a060020a0384169133917f17307eab39ab6107e8899845ad3d59bd9653f200f220920489ca2b5937696c319181900360200190a35050565b60045460009060ff161561241e57600080fd5b60088054839133918390811061243057fe5b60009182526020909120600b9091020154600160a060020a03161461245457600080fd5b61245f33858561332f565b5060019392505050565b600c5481565b6124ab85858585858080601f016020809104026020016040519081016040528093929190818152602001838380828437506133e7945050505050565b5050505050565b60045460ff1681565b60145481565b60008060006124ce61394b565b60045460009060ff16156124e157600080fd5b878714156124ee57600080fd5b600880543391908a9081106124ff57fe5b60009182526020909120600b9091020154600160a060020a0316148061253b5750600088815260196020526040902054600160a060020a031633145b151561254657600080fd5b600880543391908990811061255757fe5b60009182526020909120600b9091020154600160a060020a031614806125935750600087815260196020526040902054600160a060020a031633145b151561259e57600080fd5b426008898154811015156125ae57fe5b90600052602060002090600b020160090154111580156125ee5750426008888154811015156125d957fe5b90600052602060002090600b02016009015411155b15156125f957600080fd5b600880548990811061260757fe5b600091825260209091206005600b90920201015467ffffffffffffffff164211801561265d5750600880548890811061263c57fe5b600091825260209091206005600b90920201015467ffffffffffffffff1642115b151561266857600080fd5b8660088981548110151561267857fe5b90600052602060002090600b020160070154141580156126b85750866008898154811015156126a357fe5b90600052602060002090600b02016006015414155b15156126c357600080fd5b876008888154811015156126d357fe5b90600052602060002090600b020160070154141580156127135750876008888154811015156126fe57fe5b90600052602060002090600b02016006015414155b151561271e57600080fd5b600880548890811061272c57fe5b90600052602060002090600b0201935060088881548110151561274b57fe5b600091825260208083208a845260199091526040808420805473ffffffffffffffffffffffffffffffffffffffff199081169091558c8552818520805490911690558051808201909152600b909202019450612911916001870190600290835b8282101561284d576040805180820190915260028084028601906000835b8282101561283a576040805160808101918290529085840190600490826000855b82829054906101000a900463ffffffff1663ffffffff16815260200190600401906020826003010492830192600103820291508084116127ea5790505050505050815260200190600101906127c9565b50505050815260200190600101906127ab565b5050604080518082019091529150506001860160026000835b82821015612908576040805180820190915260028084028601906000835b828210156128f5576040805160808101918290529085840190600490826000855b82829054906101000a900463ffffffff1663ffffffff16815260200190600401906020826003010492830192600103820291508084116128a5579050505050505081526020019060010190612884565b5050505081526020019060010190612866565b50505050611cd9565b91508260050160089054906101000a900467ffffffffffffffff1660010190508360050160089054906101000a900467ffffffffffffffff1660010167ffffffffffffffff168167ffffffffffffffff1610156129885750600583015468010000000000000000900467ffffffffffffffff166001015b612991886136b2565b61299a876136b2565b600583015467ffffffffffffffff1660086129b8848b8b868c612f99565b815481106129c257fe5b600091825260209091206009600b909202010155506001979650505050505050565b60055460035401421180612a025750600054600160a060020a031633145b1515612a0d57600080fd5b6004805460ff19169055565b60165481565b600681600f8110612a2c57fe5b60089182820401919006600402915054906101000a900463ffffffff1681565b606481565b600d5481565b60045460ff1615612a6757600080fd5b600880548391339183908110612a7957fe5b60009182526020909120600b9091020154600160a060020a031614612a9d57600080fd5b600083815260196020526040808220805473ffffffffffffffffffffffffffffffffffffffff1916600160a060020a03881690811790915581517fd3ce71df000000000000000000000000000000000000000000000000000000008152600481018990526024810187905285151560448201523360648201529151909263d3ce71df9234926084808301939282900301818588803b158015612b3e57600080fd5b505af1158015612b52573d6000803e3d6000fd5b50505050505050505050565b600160a060020a039182166000908152601a6020908152604080832093909416825291909152205460ff1690565b60016020526000908152604090205481565b60035481565b612bac61392c565b612bb461392c565b600080808080808060ff8a16811115612bcc57600080fd5b60ff8a16600411612bdc57600080fd5b607f8b60ff8c1660048110612bed57fe5b61ffff9092166020929092020152600096508695508594505b8960010160ff168560ff161015612e305760058b60ff871660048110612c2857fe5b602002015161ffff169060020a90049350600560ff168461ffff169060020a028b8660ff16600481101515612c5957fe5b60200201510392508960ff168560ff161415612c7457602092505b8361ffff168761ffff161415612cfe57602083810361ffff908116600290810a600019908101938a9003831690910a0191909118925082908e90861660048110612cba57fe5b6020020151169150818861ffff861660048110612cd357fe5b6020020151178861ffff861660048110612ce957fe5b63ffffffff9092166020929092020152612e17565b61ffff6020879003811660020a60001901925082908e90891660048110612d2157fe5b6020020151169150818861ffff891660048110612d3a57fe5b6020020151178861ffff891660048110612d5057fe5b63ffffffff909216602092909202015250600186015b8361ffff168161ffff161015612db3578c61ffff821660048110612d8657fe5b60200201518861ffff831660048110612d9b57fe5b63ffffffff9092166020929092020152600101612d66565b61ffff6020849003811660020a6000190119925082908e90861660048110612dd757fe5b6020020151169150818861ffff861660048110612df057fe5b6020020151178861ffff861660048110612e0657fe5b63ffffffff90921660209290920201525b9a9b9a9295509093506001909201918491849190612c06565b50959b9a5050505050505050505050565b600054600160a060020a03163314612e5857600080fd5b600160a060020a0381161515612e6d57600080fd5b60008054604051600160a060020a03808516939216917f8be0079c531659141344cd1fd0a4f28419497f9722a3daafe3b4186f6b6457e091a36000805473ffffffffffffffffffffffffffffffffffffffff1916600160a060020a0392909216919091179055565b6008805482908110612ee357fe5b60009182526020909120600b90910201805460058201546006830154600784015460088501546009860154600a90960154600160a060020a03909516965067ffffffffffffffff808516966801000000000000000090950416949293919290919060ff1688565b600054600160a060020a03163314612f6157600080fd5b60035415612f6e57600080fd5b6005556004805460ff1916600117905542600355565b60008183811515612f9157fe5b049392505050565b600080612fa461397a565b600267ffffffffffffffff8616049150601c8567ffffffffffffffff161115612fcc57600e91505b506040805161012081018252600160a060020a038516815260208101899052600091810182905267ffffffffffffffff8616606082018190526080820188905260a0820189905260c08201929092524260e082015260ff831661010082015290151561303c57600a805460010190555b60088054600180820180845560009390935283517ff3f7a9fe364faab93b216da50a3214154f22a0a2b415b23a84c8169e8b636ee3600b909302928301805473ffffffffffffffffffffffffffffffffffffffff1916600160a060020a03909216919091178155602085015191939285926130db917ff3f7a9fe364faab93b216da50a3214154f22a0a2b415b23a84c8169e8b636ee4019060026139cd565b506040820151600582018054606085015167ffffffffffffffff1990911667ffffffffffffffff938416176fffffffffffffffff000000000000000019166801000000000000000093909116929092029190911790556080820151600682015560a0820151600782015560c0820151600882015560e0820151600982015561010090910151600a909101805460ff191660ff9092169190911790550392506131838484613758565b8286887f160403841b73fe58236181ab476e17f2836a5b4aa8a570d9f1baf4b6ed61a38a60405160405180910390a46040518390600160a060020a038616906000907fddf252ad1be2c89b69c2b068fc378daa952ba7f163c4a11628f55a4df523b3ef908290a4505095945050505050565b601654600c54439190910390601e810260008080808487101561329b576132338761322787606463ffffffff6137de16565b9063ffffffff612f8416565b93506132586103e861324c86606463ffffffff61380716565b9063ffffffff61381916565b9250613293613284846132786107d0600f54612f8490919063ffffffff16565b9063ffffffff6137de16565b600f549063ffffffff61380716565b600f556132fc565b6132b08561322789606463ffffffff6137de16565b91506132c96103e861324c84606463ffffffff61380716565b90506132f86132e9826132786107d0600f54612f8490919063ffffffff16565b600f549063ffffffff61383116565b600f555b43601655600d54600f54101561331357600d54600f555b600e54600f54111561332657600e54600f555b50505050505050565b8160088281548110151561333f57fe5b60009182526020808320600b9092029091018054600160a060020a039490941673ffffffffffffffffffffffffffffffffffffffff19948516179055838252601990526040902080549091169055613397838261383e565b6133a18282613758565b8082600160a060020a031684600160a060020a03167fddf252ad1be2c89b69c2b068fc378daa952ba7f163c4a11628f55a4df523b3ef60405160405180910390a4505050565b816008818154811015156133f757fe5b60009182526020909120600b9091020154600160a060020a03163314806134345750600081815260196020526040902054600160a060020a031633145b806134865750601a600060088381548110151561344d57fe5b60009182526020808320600b90920290910154600160a060020a03168352828101939093526040918201812033825290925290205460ff165b151561349157600080fd5b84600160a060020a03166008848154811015156134aa57fe5b60009182526020909120600b9091020154600160a060020a0316146134ce57600080fd5b600160a060020a03841615156134e357600080fd5b6134ee85858561332f565b6134f784613924565b156124ab5760405180807f6f6e455243373231526563656976656428616464726573732c75696e7432353681526020017f2c62797465732900000000000000000000000000000000000000000000000000815250602701905060405180910390207bffffffffffffffffffffffffffffffffffffffffffffffffffffffff191684600160a060020a031663f0b9e5ba8786866040518463ffffffff167c01000000000000000000000000000000000000000000000000000000000281526004018084600160a060020a0316600160a060020a0316815260200183815260200180602001828103825283818151815260200191508051906020019080838360005b8381101561360f5781810151838201526020016135f7565b50505050905090810190601f16801561363c5780820380516001836020036101000a031916815260200191505b50945050505050602060405180830381600087803b15801561365d57600080fd5b505af1158015613671573d6000803e3d6000fd5b505050506040513d602081101561368757600080fd5b50517bffffffffffffffffffffffffffffffffffffffffffffffffffffffff1916146124ab57600080fd5b60006008828154811015156136c357fe5b60009182526020909120600b90910201600a81015490915060069060ff16600f81106136eb57fe5b60088104919091015460058301805467ffffffffffffffff191660079093166004026101000a90910463ffffffff16420167ffffffffffffffff16919091179055600a810154600e60ff909116101561152b57600a01805460ff8082166001011660ff1990911617905550565b600160a060020a038216600090815260176020908152604080832060189092529091205481548110156137a55782828281548110151561379457fe5b6000918252602090912001556137bb565b8154600181018355600083815260209020018390555b505050600160a060020a0316600090815260186020526040902080546001019055565b60008215156137ef575060006118f4565b508181028183828115156137ff57fe5b04146118f457fe5b60008282111561381357fe5b50900390565b60008183111561382a5750806118f4565b5090919050565b818101828110156118f457fe5b600160a060020a038216600090815260176020526040812090805b83838381548110151561386857fe5b906000526020600020015414151561388557600190910190613859565b83838381548110151561389457fe5b906000526020600020015414156124ab5750600160a060020a03841660009081526018602052604081205460001901908111156138ff5782818154811015156138d957fe5b906000526020600020015483838154811015156138f257fe5b6000918252602090912001555b50505050600160a060020a031660009081526018602052604090208054600019019055565b6000903b1190565b6080604051908101604052806004906020820280388339509192915050565b610200604051908101604052806002905b613964613a18565b81526020019060019003908161395c5790505090565b6040805161030081019091526000815260208101613996613a47565b815260006020820181905260408201819052606082018190526080820181905260a0820181905260c0820181905260e09091015290565b600483019183908215613a08579160200282015b82811115613a085782516139f89083906002613a76565b50916020019190600201906139e1565b50613a14929150613abc565b5090565b610100604051908101604052806002905b613a3161392c565b815260200190600190039081613a295790505090565b610200604051908101604052806002905b613a60613a18565b815260200190600190039081613a585790505090565b8260028101928215613ab0579160200282015b82811115613ab0578251613aa09083906004613adf565b5091602001919060010190613a89565b50613a14929150613b77565b6110ba91905b80821115613a14576000613ad68282613b9a565b50600201613ac2565b600183019183908215613b6b5791602002820160005b83821115613b3957835183826101000a81548163ffffffff021916908363ffffffff1602179055509260200192600401602081600301049283019260010302613af5565b8015613b695782816101000a81549063ffffffff0219169055600401602081600301049283019260010302613b39565b505b50613a14929150613bb8565b6110ba91905b80821115613a14576000613b918282613bd9565b50600101613b7d565b506000613ba78282613bd9565b50613bb6906001016000613bd9565b565b6110ba91905b80821115613a1457805463ffffffff19168155600101613bbe565b50600090555600a165627a7a723058205e77dd7da4187b54fa2fd4e617af6db7d37e66e2ffcc91a3e9cd801d59f81ce90029",
  "source": "pragma solidity ^0.4.19;\n\nimport \"./Genetic.sol\";\nimport \"openzeppelin-solidity/contracts/ownership/Ownable.sol\";\nimport \"./Usernames.sol\";\nimport \"./AuctionBase.sol\";\nimport \"./CozyTimeAuction.sol\";\nimport \"./Haltable.sol\";\nimport \"./Math/ExtendedMath.sol\";\nimport \"openzeppelin-solidity/contracts/math/SafeMath.sol\";\nimport {ERC20 as PepToken} from \"openzeppelin-solidity/contracts/token/ERC20/ERC20.sol\";\n\nimport \"./interfaces/ERC721TokenReceiver.sol\";\n\n\ncontract PepeBase is Genetic, Ownable, Usernames, Haltable {\n\n    using ExtendedMath for uint256;\n    using SafeMath for uint256;\n\n    uint32[15] public cozyCoolDowns = [ //determined by generation / 2\n        uint32(1 minutes),\n        uint32(2 minutes),\n        uint32(5 minutes),\n        uint32(15 minutes),\n        uint32(30 minutes),\n        uint32(45 minutes),\n        uint32(1 hours),\n        uint32(2 hours),\n        uint32(4 hours),\n        uint32(8 hours),\n        uint32(16 hours),\n        uint32(1 days),\n        uint32(2 days),\n        uint32(4 days),\n        uint32(7 days)\n    ];\n\n    struct Pepe {\n        address master; //The master of the pepe\n        uint32[L][N][2] genotype; //all genes stored here\n        uint64 canCozyAgain; //time when pepe can have nice time again\n        uint64 generation; //what generation?\n        uint256 father; //father of this pepe\n        uint256 mother; //mommy of this pepe\n        bytes32 name;//holds the name of the pepe\n        uint256 birthTime; //when did this pepe came to life?\n        uint8 coolDownIndex;\n    }\n\n    //storage vars\n\n    Pepe[] public pepes; //stores all pepes\n\n    bool public implementsERC721 = true;\n    string public constant name = \"Crypto Pepe\";\n    string public constant symbol = \"CPEP\";\n\n    uint256 public zeroGenPepes;\n    uint256 public constant maxPremine = 100;//how many pepes can be premined\n    PepToken public pepToken;\n\n    //mining\n    uint public _BLOCKS_PER_READJUSTMENT = 30;\n    uint256 public  _MINIMUM_TARGET = 2**16;\n    uint256 public  _MAXIMUM_TARGET = 2**234;\n    uint256 public miningTarget ;\n    bytes32 public challengeNumber;   //generate a new one when a new reward is minted\n    mapping(bytes32 => bytes32) solutionForChallenge;\n    uint256 blocksMined = 0;\n    address public lastRewardTo;\n    uint256 public lastRewardAmount;\n    uint256 public lastRewardEthBlockNumber;\n    uint256 public latestDifficultyPeriodStarted;\n\n    mapping(address => uint256[]) private wallets;\n    mapping(address => uint256)  balances; //amounts of pepes per address\n    mapping(uint256 => address) public approved; //pepe index to address approved to transfer\n    mapping(address => mapping(address => bool)) public approvedForAll;\n\n    modifier onlyPepeMaster(uint256 _pepeId) {\n        require(pepes[_pepeId].master == msg.sender);\n        _;\n    }\n\n    modifier onlyAllowed(uint256 _tokenId) {\n        require(msg.sender == pepes[_tokenId].master || msg.sender == approved[_tokenId] || approvedForAll[pepes[_tokenId].master][msg.sender]); //check if msg.sender is allowed\n        _;\n    }\n\n    event PepeBorn(uint256 indexed mother, uint256 indexed father, uint256 indexed pepeId);\n    event PepeNamed(uint256 indexed pepeId);\n\n\n    constructor(address _pepeToken) Ownable() public {\n        miningTarget = _MAXIMUM_TARGET;\n        pepToken = PepToken(_pepeToken);\n    }\n\n    //generation of pepes\n    function _newPepe(uint32[L][N][2] _genoType, uint256 _mother, uint256 _father, uint64 _generation, address _master) internal returns (uint256 pepeId){\n        uint8 tempCoolDownIndex;\n\n        tempCoolDownIndex = uint8(_generation / 2);\n\n        if(_generation > 28){\n          tempCoolDownIndex = 14;\n        }\n\n        Pepe memory _pepe = Pepe({\n            master: _master, //The master of the pepe\n            genotype: _genoType, //all genes stored here\n            birthTime: now, //gets born when mother can cozy again\n            canCozyAgain: 0, //time when pepe can have nice time again\n            father: _father, //father of this pepe\n            mother: _mother, //mommy of this pepe\n            name: 0, //Name of the pepe, initialized as unset.\n                      // Owner can change the name when it is still unset.\n            generation: _generation, //what generation?\n            coolDownIndex: tempCoolDownIndex\n        });\n\n        if(_generation == 0){\n            zeroGenPepes += 1; //count zero gen pepes\n        }\n\n        //push returns the new length, use it to get a new unique id\n        pepeId = pepes.push(_pepe) - 1;\n\n        //add it to the wallet of the master of the new pepe\n        addToWallet(_master, pepeId);\n\n        emit PepeBorn(_mother, _father, pepeId);\n        emit Transfer(address(0), _master, pepeId);\n\n        return pepeId;\n    }\n\n\n    function pepePremine(uint256 _amount) onlyOwner public {\n        for(uint i = 0; i < _amount; i++){\n            require(zeroGenPepes < maxPremine);//can only generate set amount during premine\n            //create a new pepe\n            // 1) who's genes are based on hash of the timestamp and the number of pepes\n            // 2) who has no mother or father\n            // 3) who is generation zero\n            // 4) who's master is the manager\n\n            if(pepes.length == 0){ //if pepe 0 burn it\n              _newPepe(randomDNA(uint256(keccak256(abi.encodePacked(block.timestamp, totalSupply())))), 0, 0, 0, address(0));\n            }\n            else{\n              _newPepe(randomDNA(uint256(keccak256(abi.encodePacked(block.timestamp, totalSupply())))), 0, 0, 0, owner);\n            }\n\n        }\n    }\n\n\n    //pepeCozyTime functionality\n\n    function cozyTime(uint256 _mother, uint256 _father, address _pepeReceiver) stopWhenHalted external returns (bool){\n        //cannot cozyTime with itself\n        require(_mother != _father);\n        //caller has to either be master or approved for mother\n        require(pepes[_mother].master == msg.sender || approved[_mother] == msg.sender);\n        //caller has to either be master or approved for father\n        require(pepes[_father].master == msg.sender || approved[_father] == msg.sender);\n        //require both parents to be born\n        require(pepes[_mother].birthTime <= now && pepes[_father].birthTime <= now);\n        //require both parents to be ready for cozytime\n        require(now > pepes[_mother].canCozyAgain && now > pepes[_father].canCozyAgain);\n        //require both mother parents not to be father\n        require(pepes[_mother].mother != _father && pepes[_mother].father != _father);\n        //require both father parents not to be mother\n        require(pepes[_father].mother != _mother && pepes[_father].father != _mother);\n\n        Pepe storage father = pepes[_father];\n        Pepe storage mother = pepes[_mother];\n\n\n        approved[_father] = address(0);\n        approved[_mother] = address(0);\n\n        uint32[L][N][2] memory newGenotype = breed(father.genotype, mother.genotype);\n\n        uint64 newGeneration;\n\n        newGeneration = mother.generation + 1;\n        if(newGeneration < father.generation + 1){ //if father generation is bigger\n            newGeneration = father.generation + 1;\n        }\n\n        _handleCoolDown(_mother);\n        _handleCoolDown(_father);\n\n        //sets pepe birth when mother is done\n        pepes[_newPepe(newGenotype, _mother, _father, newGeneration, _pepeReceiver)].birthTime = mother.canCozyAgain; //_pepeReceiver becomes the master of the pepe\n\n        return true;\n    }\n\n    function _handleCoolDown(uint256 _pepeId) internal{\n        Pepe storage tempPep = pepes[_pepeId];\n\n        tempPep.canCozyAgain = uint64(now + cozyCoolDowns[tempPep.coolDownIndex]);\n\n        if(tempPep.coolDownIndex < 14){// after every cozy time pepe gets slower\n            tempPep.coolDownIndex ++;\n        }\n\n    }\n\n    function setPepeName(uint256 _pepeId, bytes32 _name) public stopWhenHalted onlyPepeMaster(_pepeId) returns(bool) {\n        require(pepes[_pepeId].name  == 0x0000000000000000000000000000000000000000000000000000000000000000);\n        pepes[_pepeId].name = _name;\n        emit PepeNamed(_pepeId);\n        return true;\n    }\n\n    function transferAndAuction(uint256 _pepeId, address _auction, uint256 _beginPrice, uint256 _endPrice, uint64 _duration) stopWhenHalted onlyPepeMaster(_pepeId) public {\n        _transfer(msg.sender, _auction, _pepeId);//transfer pepe to auction\n        AuctionBase auction = AuctionBase(_auction);\n\n        auction.startAuctionDirect(_pepeId, _beginPrice, _endPrice, _duration, msg.sender);\n    }\n\n    function approveAndBuy(uint256 _pepeId, address _auction, uint256 _cozyCandidate, bool _candidateAsFather) stopWhenHalted payable onlyPepeMaster(_cozyCandidate) public {\n        approved[_cozyCandidate] = _auction;\n        CozyTimeAuction(_auction).buyCozy.value(msg.value)(_pepeId, _cozyCandidate, _candidateAsFather, msg.sender); //breeding resets approval\n    }\n\n    function approveAndBuyAffiliated(uint256 _pepeId, address _auction, uint256 _cozyCandidate, bool _candidateAsFather, address _affiliate) stopWhenHalted payable onlyPepeMaster(_cozyCandidate) public {\n        approved[_cozyCandidate] = _auction;\n        CozyTimeAuction(_auction).buyCozyAffiliated.value(msg.value)(_pepeId, _cozyCandidate, _candidateAsFather, msg.sender, _affiliate); //breeding resets approval\n    }\n\n    function getPepe(uint256 _pepeId) public view returns(address master, uint32[L][N][2] genotype, uint64 canCozyAgain, uint64 generation, uint256 father, uint256 mother, bytes32 pepeName, uint256 birthTime, uint8 coolDownIndex) {\n        Pepe storage tempPep = pepes[_pepeId];\n\n        master = tempPep.master;\n        genotype = tempPep.genotype;\n        canCozyAgain = tempPep.canCozyAgain;\n        generation = tempPep.generation;\n        father = tempPep.father;\n        mother = tempPep.mother;\n        pepeName = tempPep.name;\n        birthTime = tempPep.birthTime;\n        coolDownIndex = tempPep.coolDownIndex;\n    }\n\n    function getCozyAgain(uint256 _pepeId) public view returns(uint64) {\n        return pepes[_pepeId].canCozyAgain;\n    }\n\n    ///EIP 541 compatitibility\n    event Mint(address indexed from, uint reward_amount, uint epochCount, bytes32 newChallengeNumber);\n\n    function mint(uint256 nonce, bytes32 challenge_digest) public stopWhenHalted returns (bool success) {\n        require(blocksMined < 16000);//after 16k blocks mining is done\n\n        //the PoW must contain work that includes a recent ethereum block hash (challenge number) and the msg.sender's address to prevent MITM attacks\n        bytes32 digest =  keccak256(abi.encodePacked(challengeNumber, msg.sender, nonce) );\n\n        //the challenge digest must match the expected\n        if (digest != challenge_digest) revert();\n\n        //the digest must be smaller than the target\n        if(uint256(digest) > miningTarget) revert();\n\n\n        //only allow one reward for each challenge\n        bytes32 solution = solutionForChallenge[challengeNumber];\n        solutionForChallenge[challengeNumber] = digest;\n        if(solution != 0x0) revert();  //prevent the same answer from awarding twice\n\n\n        uint reward_amount = getMiningReward();\n\n        if(blocksMined % 16 == 0) { //reward a CPEP every 16th block\n          _newPepe(randomDNA(nonce), 0, 0, 0, msg.sender); //mint new pepe\n        }\n\n        blocksMined += 1;\n\n        pepToken.transfer(msg.sender, getMiningReward());\n\n        //set readonly diagnostics data\n        lastRewardTo = msg.sender;\n        lastRewardAmount = reward_amount;\n        lastRewardEthBlockNumber = block.number;\n\n        //new challengeNumber\n        challengeNumber = blockhash(block.number - 1);\n\n        //every so often, readjust difficulty. Dont readjust when deploying\n        if(blocksMined % _BLOCKS_PER_READJUSTMENT == 0)\n        {\n          _reAdjustDifficulty();\n        }\n\n        emit Mint(msg.sender, getMiningReward(), blocksMined, challengeNumber );\n\n        return true;\n    }\n\n    function getChallengeNumber() public constant returns (bytes32)  {\n        return challengeNumber;\n    }\n\n    function getMiningDifficulty() public constant returns (uint256) {\n        return _MAXIMUM_TARGET.div(miningTarget);\n    }\n\n    function getMiningReward() public pure returns (uint256) {\n        return 2500 * 10**18;\n    }\n\n    function getMintDigest(uint256 nonce, bytes32 challenge_digest, bytes32 challenge_number) public view returns (bytes32 digesttest) {\n        bytes32 digest = keccak256(abi.encodePacked(challenge_number,msg.sender,nonce));\n        return digest;\n    }\n\n    function checkMintSolution(uint256 nonce, bytes32 challenge_digest, bytes32 challenge_number, uint testTarget) public view returns (bool success) {\n        bytes32 digest = keccak256(abi.encodePacked(challenge_number,msg.sender,nonce));\n        if(uint256(digest) > testTarget) revert();\n        return (digest == challenge_digest);\n    }\n\n    function getMiningTarget() public view returns (uint) {\n       return miningTarget;\n   }\n\n\n    function _reAdjustDifficulty() internal {\n        //TODO: some code wizard needs to take a look at this (ahemm PROTO)\n        uint ethBlocksSinceLastDifficultyPeriod = block.number - latestDifficultyPeriodStarted;\n        //assume 360 ethereum blocks per hour\n\n        //we want miners to spend 8 minutes to mine each 'block', about 60 ethereum blocks = one 0xbitcoin epoch\n        uint epochsMined = _BLOCKS_PER_READJUSTMENT; //256\n\n        uint targetEthBlocksPerDiffPeriod = epochsMined * 30; //should be 30 times slower than Ethereum\n\n        //if there were less eth blocks passed in time than expected\n        if( ethBlocksSinceLastDifficultyPeriod < targetEthBlocksPerDiffPeriod ) {\n          uint excess_block_pct = (targetEthBlocksPerDiffPeriod.mul(100)).div( ethBlocksSinceLastDifficultyPeriod );\n\n          uint excess_block_pct_extra = excess_block_pct.sub(100).limitLessThan(1000);\n          // If there were 5% more blocks mined than expected then this is 5.  If there were 100% more blocks mined than expected then this is 100.\n\n          //make it harder\n          miningTarget = miningTarget.sub(miningTarget.div(2000).mul(excess_block_pct_extra));   //by up to 50 %\n        } else {\n          uint shortage_block_pct = (ethBlocksSinceLastDifficultyPeriod.mul(100)).div( targetEthBlocksPerDiffPeriod );\n\n          uint shortage_block_pct_extra = shortage_block_pct.sub(100).limitLessThan(1000); //always between 0 and 1000\n\n          //make it easier\n          miningTarget = miningTarget.add(miningTarget.div(2000).mul(shortage_block_pct_extra));   //by up to 50 %\n        }\n\n        latestDifficultyPeriodStarted = block.number;\n\n        if(miningTarget < _MINIMUM_TARGET) //very difficult\n        {\n          miningTarget = _MINIMUM_TARGET;\n        }\n\n        if(miningTarget > _MAXIMUM_TARGET) //very easy\n        {\n          miningTarget = _MAXIMUM_TARGET;\n        }\n    }\n\n    //erc721 compatibility\n\n    event Approval(address indexed _owner, address indexed _approved, uint256 _tokenId);\n    event Transfer(address indexed _from, address indexed _to, uint256 indexed _tokenId);\n    event ApprovalForAll(address indexed _owner, address indexed _operator, bool _approved);\n\n    function totalSupply() public view returns(uint256 total) {\n        total = pepes.length - balances[address(0)];\n        return total;\n    }\n\n    function balanceOf(address _owner) external view returns (uint256 balance){\n        balance = balances[_owner];\n    }\n\n    function ownerOf(uint256 _tokenId) external view returns (address owner){\n        owner = pepes[_tokenId].master;\n    }\n\n    function tokenOfOwnerByIndex(address _owner, uint256 _index) public constant returns (uint tokenId) {\n        //The index must be smaller than the balance,\n        // to guarantee that there is no leftover token returned.\n        require(_index < balances[_owner]);\n\n        return wallets[_owner][_index];\n    }\n\n\n    //add _tokenId to the wallet of owner\n    function addToWallet(address owner, uint256 _tokenId) private {\n        uint256[] storage wallet = wallets[owner];\n        uint256 balance = balances[owner];\n        if (balance < wallet.length) {\n            wallet[balance] = _tokenId;\n        } else {\n            wallet.push(_tokenId);\n        }\n        //increase owner balance\n        //overflow is not likely to happen(need very large amount of pepes)\n        balances[owner] += 1;\n    }\n\n    //remove _tokenId from the wallet of owner\n    function removeFromWallet(address owner, uint256 _tokenId) private {\n        uint256[] storage wallet = wallets[owner];\n        uint256 i = 0;\n        for(; wallet[i] != _tokenId; i++){\n            // not the pepe we are looking for\n        }\n        if(wallet[i] == _tokenId) {\n            //found it!\n            uint256 last = balances[owner] - 1;\n            if (last > 0) {\n                //move the last item to this spot, the last will become inaccessible\n                wallet[i] = wallet[last];\n            }\n            //else: no last item to move, the balance is 0, making everything inaccessible.\n\n            //only decrease balance if _tokenId was in the wallet\n            balances[owner] -= 1;\n        }\n    }\n\n    function _transfer(address _from, address _to, uint256 _tokenId) internal {\n        pepes[_tokenId].master = _to;\n        approved[_tokenId] = address(0);//reset approved of pepe on every transfer\n\n        //remove the token from the _from wallet\n        removeFromWallet(_from, _tokenId);\n\n        //add the token to the _to wallet\n        addToWallet(_to, _tokenId);\n\n        emit Transfer(_from, _to, _tokenId);\n    }\n\n    function transfer(address _to, uint256 _tokenId) stopWhenHalted public\n        onlyPepeMaster(_tokenId) //check if msg.sender is the master of this pepe\n        returns(bool)\n    {\n        _transfer(msg.sender, _to, _tokenId);//after master modifier invoke internal transfer\n        return true;\n    }\n\n    function approve(address _to, uint256 _tokenId) stopWhenHalted external payable\n        onlyAllowed(_tokenId)\n    {\n        approved[_tokenId] = _to;\n        emit Approval(msg.sender, _to, _tokenId);\n    }\n\n    function setApprovalForAll(address _operator, bool _approved) external {\n        if(_approved) {\n            approvedForAll[msg.sender][_operator] = true;\n        }\n        else{\n            approvedForAll[msg.sender][_operator] = false;\n        }\n        emit ApprovalForAll(msg.sender, _operator, _approved);\n    }\n\n    function getApproved(uint256 _tokenId) external view returns (address){\n        return approved[_tokenId];\n    }\n\n    function isApprovedForAll(address _owner, address _operator) external view returns (bool){\n        return approvedForAll[_owner][_operator];\n    }\n\n    function supportsInterface(bytes4 interfaceID) external view returns (bool) {\n        if(interfaceID == 0x80ac58cd || interfaceID == 0x01ffc9a7) { //TODO: add more interfaces the contract supports\n          return true;\n        }\n        return false;\n    }\n\n    function safeTransferFrom(address _from, address _to, uint256 _tokenId) external payable {\n        _safeTransferFromInternal(_from, _to, _tokenId, \"\");\n    }\n\n    function safeTransferFrom(address _from, address _to, uint256 _tokenId, bytes _data) external payable {\n        _safeTransferFromInternal(_from, _to, _tokenId, _data);\n    }\n\n    function _safeTransferFromInternal(address _from, address _to, uint256 _tokenId, bytes _data) internal onlyAllowed(_tokenId) {\n        require(pepes[_tokenId].master == _from);//check if from is current owner\n        require(_to != address(0));//throw on zero address\n\n        _transfer(_from, _to, _tokenId); //transfer token\n\n        if(isContract(_to)) { //check if is contract\n            require(ERC721TokenReceiver(_to).onERC721Received(_from, _tokenId, _data) == bytes4(keccak256(\"onERC721Received(address,uint256,bytes)\")));\n        }\n    }\n\n    function transferFrom(address _from, address _to, uint256 _tokenId) stopWhenHalted onlyAllowed(_tokenId) public returns(bool) {\n        require(pepes[_tokenId].master == _from);//check if _from is really the master.\n        require(_to != address(0));\n        _transfer(_from, _to, _tokenId);//handles event, balances and approval reset;\n        return true;\n    }\n\n    function isContract(address _address) internal view returns (bool) {\n        uint size;\n        assembly { size := extcodesize(_address) }\n        return size > 0;\n    }\n\n}\n",
  "sourcePath": "/Users/mickdegraaf/Documents/development/cryptopepe-smartcontracts/contracts/PepeBase.sol",
  "compiler": {
    "name": "solc",
    "version": "0.4.24+commit.e67f0147.Emscripten.clang"
  },
  "schemaVersion": "2.0.0",
  "updatedAt": "2018-05-28T16:01:54.077Z"
}