{
  "contractName": "PepToken",
  "abi": [
    {
      "constant": true,
      "inputs": [],
      "name": "name",
      "outputs": [
        {
          "name": "",
          "type": "string"
        }
      ],
      "payable": false,
      "stateMutability": "view",
      "type": "function"
    },
    {
      "constant": false,
      "inputs": [
        {
          "name": "_spender",
          "type": "address"
        },
        {
          "name": "_value",
          "type": "uint256"
        }
      ],
      "name": "approve",
      "outputs": [
        {
          "name": "",
          "type": "bool"
        }
      ],
      "payable": false,
      "stateMutability": "nonpayable",
      "type": "function"
    },
    {
      "constant": true,
      "inputs": [],
      "name": "totalSupply",
      "outputs": [
        {
          "name": "",
          "type": "uint256"
        }
      ],
      "payable": false,
      "stateMutability": "view",
      "type": "function"
    },
    {
      "constant": true,
      "inputs": [],
      "name": "initialBalance",
      "outputs": [
        {
          "name": "",
          "type": "uint256"
        }
      ],
      "payable": false,
      "stateMutability": "view",
      "type": "function"
    },
    {
      "constant": false,
      "inputs": [
        {
          "name": "_from",
          "type": "address"
        },
        {
          "name": "_to",
          "type": "address"
        },
        {
          "name": "_value",
          "type": "uint256"
        }
      ],
      "name": "transferFrom",
      "outputs": [
        {
          "name": "",
          "type": "bool"
        }
      ],
      "payable": false,
      "stateMutability": "nonpayable",
      "type": "function"
    },
    {
      "constant": true,
      "inputs": [],
      "name": "decimals",
      "outputs": [
        {
          "name": "",
          "type": "uint8"
        }
      ],
      "payable": false,
      "stateMutability": "view",
      "type": "function"
    },
    {
      "constant": false,
      "inputs": [
        {
          "name": "_to",
          "type": "address"
        },
        {
          "name": "_value",
          "type": "uint256"
        },
        {
          "name": "_data",
          "type": "bytes"
        }
      ],
      "name": "transferAndCall",
      "outputs": [
        {
          "name": "",
          "type": "bool"
        }
      ],
      "payable": true,
      "stateMutability": "payable",
      "type": "function"
    },
    {
      "constant": false,
      "inputs": [
        {
          "name": "_spender",
          "type": "address"
        },
        {
          "name": "_subtractedValue",
          "type": "uint256"
        }
      ],
      "name": "decreaseApproval",
      "outputs": [
        {
          "name": "",
          "type": "bool"
        }
      ],
      "payable": false,
      "stateMutability": "nonpayable",
      "type": "function"
    },
    {
      "constant": true,
      "inputs": [
        {
          "name": "_owner",
          "type": "address"
        }
      ],
      "name": "balanceOf",
      "outputs": [
        {
          "name": "",
          "type": "uint256"
        }
      ],
      "payable": false,
      "stateMutability": "view",
      "type": "function"
    },
    {
      "constant": false,
      "inputs": [
        {
          "name": "_spender",
          "type": "address"
        },
        {
          "name": "_addedValue",
          "type": "uint256"
        },
        {
          "name": "_data",
          "type": "bytes"
        }
      ],
      "name": "increaseApprovalAndCall",
      "outputs": [
        {
          "name": "",
          "type": "bool"
        }
      ],
      "payable": true,
      "stateMutability": "payable",
      "type": "function"
    },
    {
      "constant": true,
      "inputs": [],
      "name": "symbol",
      "outputs": [
        {
          "name": "",
          "type": "string"
        }
      ],
      "payable": false,
      "stateMutability": "view",
      "type": "function"
    },
    {
      "constant": false,
      "inputs": [
        {
          "name": "_to",
          "type": "address"
        },
        {
          "name": "_value",
          "type": "uint256"
        }
      ],
      "name": "transfer",
      "outputs": [
        {
          "name": "",
          "type": "bool"
        }
      ],
      "payable": false,
      "stateMutability": "nonpayable",
      "type": "function"
    },
    {
      "constant": false,
      "inputs": [
        {
          "name": "_from",
          "type": "address"
        },
        {
          "name": "_to",
          "type": "address"
        },
        {
          "name": "_value",
          "type": "uint256"
        },
        {
          "name": "_data",
          "type": "bytes"
        }
      ],
      "name": "transferFromAndCall",
      "outputs": [
        {
          "name": "",
          "type": "bool"
        }
      ],
      "payable": true,
      "stateMutability": "payable",
      "type": "function"
    },
    {
      "constant": false,
      "inputs": [
        {
          "name": "_spender",
          "type": "address"
        },
        {
          "name": "_value",
          "type": "uint256"
        },
        {
          "name": "_data",
          "type": "bytes"
        }
      ],
      "name": "approveAndCall",
      "outputs": [
        {
          "name": "",
          "type": "bool"
        }
      ],
      "payable": true,
      "stateMutability": "payable",
      "type": "function"
    },
    {
      "constant": false,
      "inputs": [
        {
          "name": "_spender",
          "type": "address"
        },
        {
          "name": "_subtractedValue",
          "type": "uint256"
        },
        {
          "name": "_data",
          "type": "bytes"
        }
      ],
      "name": "decreaseApprovalAndCall",
      "outputs": [
        {
          "name": "",
          "type": "bool"
        }
      ],
      "payable": true,
      "stateMutability": "payable",
      "type": "function"
    },
    {
      "constant": false,
      "inputs": [
        {
          "name": "_spender",
          "type": "address"
        },
        {
          "name": "_addedValue",
          "type": "uint256"
        }
      ],
      "name": "increaseApproval",
      "outputs": [
        {
          "name": "",
          "type": "bool"
        }
      ],
      "payable": false,
      "stateMutability": "nonpayable",
      "type": "function"
    },
    {
      "constant": true,
      "inputs": [
        {
          "name": "_owner",
          "type": "address"
        },
        {
          "name": "_spender",
          "type": "address"
        }
      ],
      "name": "allowance",
      "outputs": [
        {
          "name": "",
          "type": "uint256"
        }
      ],
      "payable": false,
      "stateMutability": "view",
      "type": "function"
    },
    {
      "inputs": [],
      "payable": false,
      "stateMutability": "nonpayable",
      "type": "constructor"
    },
    {
      "anonymous": false,
      "inputs": [
        {
          "indexed": true,
          "name": "owner",
          "type": "address"
        },
        {
          "indexed": true,
          "name": "spender",
          "type": "address"
        },
        {
          "indexed": false,
          "name": "value",
          "type": "uint256"
        }
      ],
      "name": "Approval",
      "type": "event"
    },
    {
      "anonymous": false,
      "inputs": [
        {
          "indexed": true,
          "name": "from",
          "type": "address"
        },
        {
          "indexed": true,
          "name": "to",
          "type": "address"
        },
        {
          "indexed": false,
          "name": "value",
          "type": "uint256"
        }
      ],
      "name": "Transfer",
      "type": "event"
    }
  ],
  "bytecode": "0x60c0604052600960808190527f50455020746f6b656e000000000000000000000000000000000000000000000060a090815261003e91600391906100c5565b506040805180820190915260038082527f50455000000000000000000000000000000000000000000000000000000000006020909201918252610083916004916100c5565b506005805460ff1916601217905534801561009d57600080fd5b503360009081526020819052604090206a295be96e6406697200000090819055600155610160565b828054600181600116156101000203166002900490600052602060002090601f016020900481019282601f1061010657805160ff1916838001178555610133565b82800160010185558215610133579182015b82811115610133578251825591602001919060010190610118565b5061013f929150610143565b5090565b61015d91905b8082111561013f5760008155600101610149565b90565b610c908061016f6000396000f3006080604052600436106100f05763ffffffff7c010000000000000000000000000000000000000000000000000000000060003504166306fdde0381146100f5578063095ea7b31461017f57806318160ddd146101b757806318369a2a146101de57806323b872dd146101f3578063313ce5671461021d5780634000aea01461024857806366188463146102a457806370a08231146102c857806390db623f146102e957806395d89b4114610345578063a9059cbb1461035a578063c1d34b891461037e578063cae9ca51146103e0578063cb3993be1461043c578063d73dd62314610498578063dd62ed3e146104bc575b600080fd5b34801561010157600080fd5b5061010a6104e3565b6040805160208082528351818301528351919283929083019185019080838360005b8381101561014457818101518382015260200161012c565b50505050905090810190601f1680156101715780820380516001836020036101000a031916815260200191505b509250505060405180910390f35b34801561018b57600080fd5b506101a3600160a060020a0360043516602435610571565b604080519115158252519081900360200190f35b3480156101c357600080fd5b506101cc6105d7565b60408051918252519081900360200190f35b3480156101ea57600080fd5b506101cc6105dd565b3480156101ff57600080fd5b506101a3600160a060020a03600435811690602435166044356105ec565b34801561022957600080fd5b50610232610763565b6040805160ff9092168252519081900360200190f35b604080516020600460443581810135601f81018490048402850184019095528484526101a3948235600160a060020a031694602480359536959460649492019190819084018382808284375094975061076c9650505050505050565b3480156102b057600080fd5b506101a3600160a060020a036004351660243561081c565b3480156102d457600080fd5b506101cc600160a060020a036004351661090c565b604080516020600460443581810135601f81018490048402850184019095528484526101a3948235600160a060020a03169460248035953695946064949201919081908401838280828437509497506109279650505050505050565b34801561035157600080fd5b5061010a610949565b34801561036657600080fd5b506101a3600160a060020a03600435166024356109a4565b604080516020601f6064356004818101359283018490048402850184019095528184526101a394600160a060020a038135811695602480359092169560443595369560849401918190840183828082843750949750610a859650505050505050565b604080516020600460443581810135601f81018490048402850184019095528484526101a3948235600160a060020a0316946024803595369594606494920191908190840183828082843750949750610b379650505050505050565b604080516020600460443581810135601f81018490048402850184019095528484526101a3948235600160a060020a0316946024803595369594606494920191908190840183828082843750949750610b599650505050505050565b3480156104a457600080fd5b506101a3600160a060020a0360043516602435610b7b565b3480156104c857600080fd5b506101cc600160a060020a0360043581169060243516610c14565b6003805460408051602060026001851615610100026000190190941693909304601f810184900484028201840190925281815292918301828280156105695780601f1061053e57610100808354040283529160200191610569565b820191906000526020600020905b81548152906001019060200180831161054c57829003601f168201915b505050505081565b336000818152600260209081526040808320600160a060020a038716808552908352818420869055815186815291519394909390927f8c5be1e5ebec7d5bd14f71427d1e84f3dd0314c0f7b2291e5b200ac8c7c3b925928290030190a350600192915050565b60015490565b6a295be96e6406697200000081565b6000600160a060020a038316151561060357600080fd5b600160a060020a03841660009081526020819052604090205482111561062857600080fd5b600160a060020a038416600090815260026020908152604080832033845290915290205482111561065857600080fd5b600160a060020a038416600090815260208190526040902054610681908363ffffffff610c3f16565b600160a060020a0380861660009081526020819052604080822093909355908516815220546106b6908363ffffffff610c5116565b600160a060020a038085166000908152602081815260408083209490945591871681526002825282812033825290915220546106f8908363ffffffff610c3f16565b600160a060020a03808616600081815260026020908152604080832033845282529182902094909455805186815290519287169391927fddf252ad1be2c89b69c2b068fc378daa952ba7f163c4a11628f55a4df523b3ef929181900390910190a35060019392505050565b60055460ff1681565b6000600160a060020a03841630141561078457600080fd5b61078e84846109a4565b5083600160a060020a0316348360405180828051906020019080838360005b838110156107c55781810151838201526020016107ad565b50505050905090810190601f1680156107f25780820380516001836020036101000a031916815260200191505b5091505060006040518083038185875af192505050151561081257600080fd5b5060019392505050565b336000908152600260209081526040808320600160a060020a03861684529091528120548083111561087157336000908152600260209081526040808320600160a060020a03881684529091528120556108a6565b610881818463ffffffff610c3f16565b336000908152600260209081526040808320600160a060020a03891684529091529020555b336000818152600260209081526040808320600160a060020a0389168085529083529281902054815190815290519293927f8c5be1e5ebec7d5bd14f71427d1e84f3dd0314c0f7b2291e5b200ac8c7c3b925929181900390910190a35060019392505050565b600160a060020a031660009081526020819052604090205490565b6000600160a060020a03841630141561093f57600080fd5b61078e8484610b7b565b6004805460408051602060026001851615610100026000190190941693909304601f810184900484028201840190925281815292918301828280156105695780601f1061053e57610100808354040283529160200191610569565b6000600160a060020a03831615156109bb57600080fd5b336000908152602081905260409020548211156109d757600080fd5b336000908152602081905260409020546109f7908363ffffffff610c3f16565b3360009081526020819052604080822092909255600160a060020a03851681522054610a29908363ffffffff610c5116565b600160a060020a038416600081815260208181526040918290209390935580518581529051919233927fddf252ad1be2c89b69c2b068fc378daa952ba7f163c4a11628f55a4df523b3ef9281900390910190a350600192915050565b6000600160a060020a038416301415610a9d57600080fd5b610aa88585856105ec565b5083600160a060020a0316348360405180828051906020019080838360005b83811015610adf578181015183820152602001610ac7565b50505050905090810190601f168015610b0c5780820380516001836020036101000a031916815260200191505b5091505060006040518083038185875af1925050501515610b2c57600080fd5b506001949350505050565b6000600160a060020a038416301415610b4f57600080fd5b61078e8484610571565b6000600160a060020a038416301415610b7157600080fd5b61078e848461081c565b336000908152600260209081526040808320600160a060020a0386168452909152812054610baf908363ffffffff610c5116565b336000818152600260209081526040808320600160a060020a0389168085529083529281902085905580519485525191937f8c5be1e5ebec7d5bd14f71427d1e84f3dd0314c0f7b2291e5b200ac8c7c3b925929081900390910190a350600192915050565b600160a060020a03918216600090815260026020908152604080832093909416825291909152205490565b600082821115610c4b57fe5b50900390565b81810182811015610c5e57fe5b929150505600a165627a7a72305820b8018bb43b4b56cbb1cb5129ab49eecc19297db0f13623977be71f4a9d97187d0029",
  "source": "pragma solidity ^0.4.4;\n\nimport \"openzeppelin-solidity/contracts/token/ERC827/ERC827Token.sol\";\n\ncontract PepToken is ERC827Token {\n\n    string public name = \"PEP token\";\n    string public symbol = \"PEP\";\n    uint8 public decimals = 18;\n    uint256 public constant initialBalance = 50000000 ether;\n\n    constructor() public {\n      balances[msg.sender] = initialBalance;\n      totalSupply_ = initialBalance;\n    }\n\n}\n",
  "sourcePath": "/Users/mickdegraaf/Documents/development/cryptopepe-smartcontracts/contracts/PepToken.sol",
  "compiler": {
    "name": "solc",
    "version": "0.4.24+commit.e67f0147.Emscripten.clang"
  },
  "schemaVersion": "2.0.0",
  "updatedAt": "2018-05-28T15:54:40.142Z"
}