{
  "contractName": "RevenueSplit",
  "abi": [
    {
      "constant": true,
      "inputs": [],
      "name": "owner",
      "outputs": [
        {
          "name": "",
          "type": "address"
        }
      ],
      "payable": false,
      "stateMutability": "view",
      "type": "function"
    },
    {
      "constant": true,
      "inputs": [
        {
          "name": "",
          "type": "uint256"
        }
      ],
      "name": "beneficiaries",
      "outputs": [
        {
          "name": "",
          "type": "address"
        }
      ],
      "payable": false,
      "stateMutability": "view",
      "type": "function"
    },
    {
      "constant": false,
      "inputs": [
        {
          "name": "newOwner",
          "type": "address"
        }
      ],
      "name": "transferOwnership",
      "outputs": [],
      "payable": false,
      "stateMutability": "nonpayable",
      "type": "function"
    },
    {
      "payable": true,
      "stateMutability": "payable",
      "type": "fallback"
    },
    {
      "anonymous": false,
      "inputs": [
        {
          "indexed": true,
          "name": "previousOwner",
          "type": "address"
        },
        {
          "indexed": true,
          "name": "newOwner",
          "type": "address"
        }
      ],
      "name": "OwnershipTransferred",
      "type": "event"
    },
    {
      "constant": false,
      "inputs": [
        {
          "name": "_token",
          "type": "address"
        }
      ],
      "name": "withdrawToken",
      "outputs": [],
      "payable": false,
      "stateMutability": "nonpayable",
      "type": "function"
    },
    {
      "constant": false,
      "inputs": [],
      "name": "withdrawEther",
      "outputs": [],
      "payable": false,
      "stateMutability": "nonpayable",
      "type": "function"
    },
    {
      "constant": false,
      "inputs": [
        {
          "name": "_newBeneficiary",
          "type": "address"
        }
      ],
      "name": "addBeneficiary",
      "outputs": [],
      "payable": false,
      "stateMutability": "nonpayable",
      "type": "function"
    },
    {
      "constant": false,
      "inputs": [
        {
          "name": "_index",
          "type": "uint256"
        }
      ],
      "name": "removeBeneficiary",
      "outputs": [],
      "payable": false,
      "stateMutability": "nonpayable",
      "type": "function"
    },
    {
      "constant": true,
      "inputs": [],
      "name": "getBeneficiaries",
      "outputs": [
        {
          "name": "",
          "type": "address[]"
        }
      ],
      "payable": false,
      "stateMutability": "view",
      "type": "function"
    }
  ],
  "bytecode": "0x608060405260008054600160a060020a03191633179055610680806100256000396000f30060806040526004361061008d5763ffffffff7c01000000000000000000000000000000000000000000000000000000006000350416635926651d811461008f57806363871d25146100b05780637362377b146100c857806389476069146100dd5780638da5cb5b146100fe578063913b722c1461012f578063efeb5e5814610194578063f2fde38b146101ac575b005b34801561009b57600080fd5b5061008d600160a060020a03600435166101cd565b3480156100bc57600080fd5b5061008d600435610242565b3480156100d457600080fd5b5061008d6102e4565b3480156100e957600080fd5b5061008d600160a060020a036004351661035f565b34801561010a57600080fd5b506101136104e9565b60408051600160a060020a039092168252519081900360200190f35b34801561013b57600080fd5b506101446104f8565b60408051602080825283518183015283519192839290830191858101910280838360005b83811015610180578181015183820152602001610168565b505050509050019250505060405180910390f35b3480156101a057600080fd5b5061011360043561055b565b3480156101b857600080fd5b5061008d600160a060020a0360043516610583565b600054600160a060020a031633146101e457600080fd5b6001805480820182556000919091527fb10e2d527612073b26eecdfd717e6a320cf44b4afac2b0732d9fcbe2b7fa0cf601805473ffffffffffffffffffffffffffffffffffffffff1916600160a060020a0392909216919091179055565b600054600160a060020a0316331461025957600080fd5b6001546000190181146102cd5760018054600019810190811061027857fe5b60009182526020909120015460018054600160a060020a03909216918390811061029e57fe5b9060005260206000200160006101000a815481600160a060020a030219169083600160a060020a031602179055505b6001805460001901906102e09082610617565b5050565b303160005b6001548110156102e057600180548290811061030157fe5b600091825260209091200154600154600160a060020a03909116906108fc908481151561032a57fe5b049081150290604051600060405180830381858888f19350505050158015610356573d6000803e3d6000fd5b506001016102e9565b604080517f70a0823100000000000000000000000000000000000000000000000000000000815230600482015290516000918291600160a060020a038516916370a0823191602480830192602092919082900301818787803b1580156103c457600080fd5b505af11580156103d8573d6000803e3d6000fd5b505050506040513d60208110156103ee57600080fd5b50519150600090505b6001548110156104e45782600160a060020a031663a9059cbb60018381548110151561041f57fe5b600091825260209091200154600154600160a060020a03909116908581151561044457fe5b046040518363ffffffff167c01000000000000000000000000000000000000000000000000000000000281526004018083600160a060020a0316600160a060020a0316815260200182815260200192505050602060405180830381600087803b1580156104b057600080fd5b505af11580156104c4573d6000803e3d6000fd5b505050506040513d60208110156104da57600080fd5b50506001016103f7565b505050565b600054600160a060020a031681565b6060600180548060200260200160405190810160405280929190818152602001828054801561055057602002820191906000526020600020905b8154600160a060020a03168152600190910190602001808311610532575b505050505090505b90565b600180548290811061056957fe5b600091825260209091200154600160a060020a0316905081565b600054600160a060020a0316331461059a57600080fd5b600160a060020a03811615156105af57600080fd5b60008054604051600160a060020a03808516939216917f8be0079c531659141344cd1fd0a4f28419497f9722a3daafe3b4186f6b6457e091a36000805473ffffffffffffffffffffffffffffffffffffffff1916600160a060020a0392909216919091179055565b8154818355818111156104e4576000838152602090206104e491810190830161055891905b80821115610650576000815560010161063c565b50905600a165627a7a723058201cbd87fc3258517c3ca3ab540089db68b1616afc0baee51561d68a56ae418b470029",
  "source": "pragma solidity ^0.4.18;\n\nimport \"openzeppelin-solidity/contracts/ownership/Ownable.sol\";\nimport \"openzeppelin-solidity/contracts/token/ERC20/ERC20.sol\";\n\ncontract RevenueSplit is Ownable {\n\n  address[] public beneficiaries;\n\n  function () payable public {}\n\n  function withdrawToken(address _token) external { //anyone can call, funds go to beneficiaries anyway\n    uint256 totalTokens = ERC20(_token).balanceOf(this);\n\n    for(uint256 i = 0; i < beneficiaries.length; i ++){\n      ERC20(_token).transfer(beneficiaries[i], totalTokens / beneficiaries.length); //splits equal portion to every beneficiary\n    }\n  }\n\n  function withdrawEther() external { //anyone can call, ether goes to beneficiaries\n    uint256 totalEther = address(this).balance;\n\n    for(uint256 i = 0; i < beneficiaries.length; i ++){\n      beneficiaries[i].transfer(totalEther / beneficiaries.length); //splits equal portion to every beneficiary\n    }\n  }\n\n  function addBeneficiary(address _newBeneficiary) onlyOwner external {\n    beneficiaries.push(_newBeneficiary);\n  }\n\n  function removeBeneficiary(uint256 _index) onlyOwner external {\n    if(_index != beneficiaries.length - 1){//only replace last if index is smaller than last\n      beneficiaries[_index] = beneficiaries[beneficiaries.length - 1];\n    }\n    beneficiaries.length = beneficiaries.length -1;\n  }\n\n  function getBeneficiaries() view public returns(address[]) {\n    return beneficiaries;\n  }\n\n}\n",
  "sourcePath": "/Users/mickdegraaf/Documents/development/cryptopepe-smartcontracts/contracts/RevenueSplit.sol",
  "compiler": {
    "name": "solc",
    "version": "0.4.24+commit.e67f0147.Emscripten.clang"
  },
  "schemaVersion": "2.0.0",
  "updatedAt": "2018-05-28T15:54:40.155Z"
}