{
  "contractName": "Usernames",
  "abi": [
    {
      "constant": true,
      "inputs": [
        {
          "name": "",
          "type": "bytes32"
        }
      ],
      "name": "userToAddress",
      "outputs": [
        {
          "name": "",
          "type": "address"
        }
      ],
      "payable": false,
      "stateMutability": "view",
      "type": "function"
    },
    {
      "constant": true,
      "inputs": [
        {
          "name": "",
          "type": "address"
        }
      ],
      "name": "addressToUser",
      "outputs": [
        {
          "name": "",
          "type": "bytes32"
        }
      ],
      "payable": false,
      "stateMutability": "view",
      "type": "function"
    },
    {
      "anonymous": false,
      "inputs": [
        {
          "indexed": true,
          "name": "user",
          "type": "address"
        },
        {
          "indexed": true,
          "name": "username",
          "type": "bytes32"
        }
      ],
      "name": "UserNamed",
      "type": "event"
    },
    {
      "constant": false,
      "inputs": [
        {
          "name": "_username",
          "type": "bytes32"
        }
      ],
      "name": "claimUsername",
      "outputs": [],
      "payable": false,
      "stateMutability": "nonpayable",
      "type": "function"
    }
  ],
  "bytecode": "0x608060405234801561001057600080fd5b5061023b806100206000396000f3006080604052600436106100565763ffffffff7c01000000000000000000000000000000000000000000000000000000006000350416636c88beeb811461005b57806371e68cad1461009c578063edf53886146100b6575b600080fd5b34801561006757600080fd5b506100736004356100f6565b6040805173ffffffffffffffffffffffffffffffffffffffff9092168252519081900360200190f35b3480156100a857600080fd5b506100b460043561011e565b005b3480156100c257600080fd5b506100e473ffffffffffffffffffffffffffffffffffffffff600435166101fd565b60408051918252519081900360200190f35b60016020526000908152604090205473ffffffffffffffffffffffffffffffffffffffff1681565b60008181526001602052604090205473ffffffffffffffffffffffffffffffffffffffff161561014d57600080fd5b3360009081526020819052604090205415610198573360009081526020818152604080832054835260019091529020805473ffffffffffffffffffffffffffffffffffffffff191690555b336000818152602081815260408083208590558483526001909152808220805473ffffffffffffffffffffffffffffffffffffffff191684179055518392917f43c1ac38b68f3a24742fba8f0826c9fcf340d41f123872fa3175164d117e25af91a350565b600060208190529081526040902054815600a165627a7a72305820415135a3123b98df861aa751de1611823e737518407262b65e401bfe9b3735710029",
  "source": "pragma solidity ^0.4.19;\n\ncontract Usernames {\n\n  mapping(address => bytes32) public addressToUser;\n  mapping(bytes32 => address) public userToAddress;\n\n  event UserNamed(address indexed user, bytes32 indexed username);\n\n  function claimUsername(bytes32 _username) external {\n    require(userToAddress[_username] == address(0));// Username must be free\n\n    if(addressToUser[msg.sender] != bytes32(0)) { // If user already has username free it up\n      userToAddress[addressToUser[msg.sender]] = address(0);\n    }\n\n    //all is well assign username\n    addressToUser[msg.sender] = _username;\n    userToAddress[_username] = msg.sender;\n\n    emit UserNamed(msg.sender, _username);\n\n  }\n\n}\n",
  "sourcePath": "/Users/mickdegraaf/Documents/development/cryptopepe-smartcontracts/contracts/Usernames.sol",
  "compiler": {
    "name": "solc",
    "version": "0.4.24+commit.e67f0147.Emscripten.clang"
  },
  "schemaVersion": "2.0.0",
  "updatedAt": "2018-05-28T16:01:54.036Z"
}